{
  "_format": "hh-sol-artifact-1",
  "contractName": "UniSwap",
  "sourceName": "contracts/UniSwap.sol",
  "abi": [
    {
      "inputs": [
        {
          "internalType": "address",
          "name": "_uniswap",
          "type": "address"
        },
        {
          "internalType": "uint256",
          "name": "amountIn",
          "type": "uint256"
        },
        {
          "internalType": "uint256",
          "name": "amountOutMin",
          "type": "uint256"
        },
        {
          "internalType": "address[]",
          "name": "path",
          "type": "address[]"
        },
        {
          "internalType": "address",
          "name": "to",
          "type": "address"
        },
        {
          "internalType": "uint256",
          "name": "deadline",
          "type": "uint256"
        }
      ],
      "name": "calcCallData",
      "outputs": [
        {
          "internalType": "bytes",
          "name": "data",
          "type": "bytes"
        }
      ],
      "stateMutability": "pure",
      "type": "function"
    },
    {
      "inputs": [
        {
          "internalType": "address",
          "name": "_uniswap",
          "type": "address"
        },
        {
          "internalType": "uint256",
          "name": "amountIn",
          "type": "uint256"
        },
        {
          "internalType": "uint256",
          "name": "amountOutMin",
          "type": "uint256"
        },
        {
          "internalType": "address[]",
          "name": "path",
          "type": "address[]"
        },
        {
          "internalType": "address",
          "name": "to",
          "type": "address"
        },
        {
          "internalType": "uint256",
          "name": "deadline",
          "type": "uint256"
        }
      ],
      "name": "routeToken",
      "outputs": [
        {
          "internalType": "bool",
          "name": "success",
          "type": "bool"
        }
      ],
      "stateMutability": "nonpayable",
      "type": "function"
    }
  ],
  "bytecode": "0x608060405234801561001057600080fd5b50610a3b806100206000396000f3fe608060405234801561001057600080fd5b50600436106100365760003560e01c806346e26c7b1461003b578063aa0c6eac1461006b575b600080fd5b6100556004803603810190610050919061044d565b61009b565b6040516100629190610517565b60405180910390f35b6100856004803603810190610080919061044d565b610297565b60405161009291906105c2565b60405180910390f35b600080858560008181106100b2576100b16105e4565b5b90506020020160208101906100c79190610613565b90506000868660018181106100df576100de6105e4565b5b90506020020160208101906100f49190610613565b90508173ffffffffffffffffffffffffffffffffffffffff1663095ea7b38b8b6040518363ffffffff1660e01b815260040161013192919061065e565b6020604051808303816000875af1158015610150573d6000803e3d6000fd5b505050506040513d601f19601f8201168201806040525081019061017491906106b3565b508073ffffffffffffffffffffffffffffffffffffffff1663095ea7b38b8b6040518363ffffffff1660e01b81526004016101b092919061065e565b6020604051808303816000875af11580156101cf573d6000803e3d6000fd5b505050506040513d601f19601f820116820180604052508101906101f391906106b3565b5060008a90508073ffffffffffffffffffffffffffffffffffffffff166318cbafe58b8b8b8b8b8b6040518763ffffffff1660e01b815260040161023c969594939291906107a3565b6000604051808303816000875af115801561025b573d6000803e3d6000fd5b505050506040513d6000823e3d601f19601f820116820180604052508101906102849190610952565b5060019350505050979650505050505050565b6060878787878787876040516024016102b6979695949392919061099b565b6040516020818303038152906040527fdaf55092000000000000000000000000000000000000000000000000000000007bffffffffffffffffffffffffffffffffffffffffffffffffffffffff19166020820180517bffffffffffffffffffffffffffffffffffffffffffffffffffffffff83818316178352505050509050979650505050505050565b6000604051905090565b600080fd5b600080fd5b600073ffffffffffffffffffffffffffffffffffffffff82169050919050565b600061037f82610354565b9050919050565b61038f81610374565b811461039a57600080fd5b50565b6000813590506103ac81610386565b92915050565b6000819050919050565b6103c5816103b2565b81146103d057600080fd5b50565b6000813590506103e2816103bc565b92915050565b600080fd5b600080fd5b600080fd5b60008083601f84011261040d5761040c6103e8565b5b8235905067ffffffffffffffff81111561042a576104296103ed565b5b602083019150836020820283011115610446576104456103f2565b5b9250929050565b600080600080600080600060c0888a03121561046c5761046b61034a565b5b600061047a8a828b0161039d565b975050602061048b8a828b016103d3565b965050604061049c8a828b016103d3565b955050606088013567ffffffffffffffff8111156104bd576104bc61034f565b5b6104c98a828b016103f7565b945094505060806104dc8a828b0161039d565b92505060a06104ed8a828b016103d3565b91505092959891949750929550565b60008115159050919050565b610511816104fc565b82525050565b600060208201905061052c6000830184610508565b92915050565b600081519050919050565b600082825260208201905092915050565b60005b8381101561056c578082015181840152602081019050610551565b60008484015250505050565b6000601f19601f8301169050919050565b600061059482610532565b61059e818561053d565b93506105ae81856020860161054e565b6105b781610578565b840191505092915050565b600060208201905081810360008301526105dc8184610589565b905092915050565b7f4e487b7100000000000000000000000000000000000000000000000000000000600052603260045260246000fd5b6000602082840312156106295761062861034a565b5b60006106378482850161039d565b91505092915050565b61064981610374565b82525050565b610658816103b2565b82525050565b60006040820190506106736000830185610640565b610680602083018461064f565b9392505050565b610690816104fc565b811461069b57600080fd5b50565b6000815190506106ad81610687565b92915050565b6000602082840312156106c9576106c861034a565b5b60006106d78482850161069e565b91505092915050565b600082825260208201905092915050565b6000819050919050565b61070481610374565b82525050565b600061071683836106fb565b60208301905092915050565b6000610731602084018461039d565b905092915050565b6000602082019050919050565b600061075283856106e0565b935061075d826106f1565b8060005b85811015610796576107738284610722565b61077d888261070a565b975061078883610739565b925050600181019050610761565b5085925050509392505050565b600060a0820190506107b8600083018961064f565b6107c5602083018861064f565b81810360408301526107d8818688610746565b90506107e76060830185610640565b6107f4608083018461064f565b979650505050505050565b7f4e487b7100000000000000000000000000000000000000000000000000000000600052604160045260246000fd5b61083782610578565b810181811067ffffffffffffffff82111715610856576108556107ff565b5b80604052505050565b6000610869610340565b9050610875828261082e565b919050565b600067ffffffffffffffff821115610895576108946107ff565b5b602082029050602081019050919050565b6000815190506108b5816103bc565b92915050565b60006108ce6108c98461087a565b61085f565b905080838252602082019050602084028301858111156108f1576108f06103f2565b5b835b8181101561091a578061090688826108a6565b8452602084019350506020810190506108f3565b5050509392505050565b600082601f830112610939576109386103e8565b5b81516109498482602086016108bb565b91505092915050565b6000602082840312156109685761096761034a565b5b600082015167ffffffffffffffff8111156109865761098561034f565b5b61099284828501610924565b91505092915050565b600060c0820190506109b0600083018a610640565b6109bd602083018961064f565b6109ca604083018861064f565b81810360608301526109dd818688610746565b90506109ec6080830185610640565b6109f960a083018461064f565b9897505050505050505056fea264697066735822122079dfc1ad1c1282675cf52dcc84f02bf38fb42f09640a90cc15681f74ccfd005564736f6c63430008110033",
  "linkReferences": {},
  "deployedLinkReferences": {}
}