{
  "_format": "hh-sol-artifact-1",
  "contractName": "Router",
  "sourceName": "contracts/Router.sol",
  "abi": [
    {
      "inputs": [
        {
          "internalType": "address",
          "name": "_token",
          "type": "address"
        },
        {
          "internalType": "address",
          "name": "_to",
          "type": "address"
        },
        {
          "internalType": "uint256",
          "name": "_value",
          "type": "uint256"
        }
      ],
      "name": "encode",
      "outputs": [
        {
          "internalType": "bytes",
          "name": "data",
          "type": "bytes"
        }
      ],
      "stateMutability": "pure",
      "type": "function"
    },
    {
      "inputs": [
        {
          "internalType": "address",
          "name": "_token",
          "type": "address"
        },
        {
          "internalType": "address",
          "name": "_to",
          "type": "address"
        },
        {
          "internalType": "uint256",
          "name": "_value",
          "type": "uint256"
        }
      ],
      "name": "route",
      "outputs": [
        {
          "internalType": "bool",
          "name": "success",
          "type": "bool"
        }
      ],
      "stateMutability": "nonpayable",
      "type": "function"
    }
  ],
  "bytecode": "0x608060405234801561001057600080fd5b506104aa806100206000396000f3fe608060405234801561001057600080fd5b50600436106100365760003560e01c806358b4e5481461003b578063a7586bab1461006b575b600080fd5b61005560048036038101906100509190610262565b61009b565b60405161006291906102d0565b60405180910390f35b61008560048036038101906100809190610262565b61012c565b604051610092919061037b565b60405180910390f35b6000808490508073ffffffffffffffffffffffffffffffffffffffff1663a9059cbb85856040518363ffffffff1660e01b81526004016100dc9291906103bb565b6020604051808303816000875af11580156100fb573d6000803e3d6000fd5b505050506040513d601f19601f8201168201806040525081019061011f9190610410565b5060019150509392505050565b60608383836040516024016101439392919061043d565b6040516020818303038152906040527feed55c58000000000000000000000000000000000000000000000000000000007bffffffffffffffffffffffffffffffffffffffffffffffffffffffff19166020820180517bffffffffffffffffffffffffffffffffffffffffffffffffffffffff838183161783525050505090509392505050565b600080fd5b600073ffffffffffffffffffffffffffffffffffffffff82169050919050565b60006101f9826101ce565b9050919050565b610209816101ee565b811461021457600080fd5b50565b60008135905061022681610200565b92915050565b6000819050919050565b61023f8161022c565b811461024a57600080fd5b50565b60008135905061025c81610236565b92915050565b60008060006060848603121561027b5761027a6101c9565b5b600061028986828701610217565b935050602061029a86828701610217565b92505060406102ab8682870161024d565b9150509250925092565b60008115159050919050565b6102ca816102b5565b82525050565b60006020820190506102e560008301846102c1565b92915050565b600081519050919050565b600082825260208201905092915050565b60005b8381101561032557808201518184015260208101905061030a565b60008484015250505050565b6000601f19601f8301169050919050565b600061034d826102eb565b61035781856102f6565b9350610367818560208601610307565b61037081610331565b840191505092915050565b600060208201905081810360008301526103958184610342565b905092915050565b6103a6816101ee565b82525050565b6103b58161022c565b82525050565b60006040820190506103d0600083018561039d565b6103dd60208301846103ac565b9392505050565b6103ed816102b5565b81146103f857600080fd5b50565b60008151905061040a816103e4565b92915050565b600060208284031215610426576104256101c9565b5b6000610434848285016103fb565b91505092915050565b6000606082019050610452600083018661039d565b61045f602083018561039d565b61046c60408301846103ac565b94935050505056fea2646970667358221220d360c71f7ce89d832bb17000e5780fa32a2638b7a5f308b891d6af2e1bd669d864736f6c63430008110033",
  "linkReferences": {},
  "deployedLinkReferences": {}
}