{
  "_format": "hh-sol-artifact-1",
  "contractName": "Factory",
  "sourceName": "contracts/Factory.sol",
  "abi": [
    {
      "inputs": [
        {
          "internalType": "contract MinimalForwarder",
          "name": "_forwarder",
          "type": "address"
        }
      ],
      "stateMutability": "nonpayable",
      "type": "constructor"
    },
    {
      "anonymous": false,
      "inputs": [
        {
          "indexed": true,
          "internalType": "address",
          "name": "spender",
          "type": "address"
        },
        {
          "indexed": false,
          "internalType": "uint256",
          "name": "salt",
          "type": "uint256"
        }
      ],
      "name": "Addr",
      "type": "event"
    },
    {
      "anonymous": false,
      "inputs": [
        {
          "indexed": true,
          "internalType": "bytes32",
          "name": "role",
          "type": "bytes32"
        },
        {
          "indexed": true,
          "internalType": "bytes32",
          "name": "previousAdminRole",
          "type": "bytes32"
        },
        {
          "indexed": true,
          "internalType": "bytes32",
          "name": "newAdminRole",
          "type": "bytes32"
        }
      ],
      "name": "RoleAdminChanged",
      "type": "event"
    },
    {
      "anonymous": false,
      "inputs": [
        {
          "indexed": true,
          "internalType": "bytes32",
          "name": "role",
          "type": "bytes32"
        },
        {
          "indexed": true,
          "internalType": "address",
          "name": "account",
          "type": "address"
        },
        {
          "indexed": true,
          "internalType": "address",
          "name": "sender",
          "type": "address"
        }
      ],
      "name": "RoleGranted",
      "type": "event"
    },
    {
      "anonymous": false,
      "inputs": [
        {
          "indexed": true,
          "internalType": "bytes32",
          "name": "role",
          "type": "bytes32"
        },
        {
          "indexed": true,
          "internalType": "address",
          "name": "account",
          "type": "address"
        },
        {
          "indexed": true,
          "internalType": "address",
          "name": "sender",
          "type": "address"
        }
      ],
      "name": "RoleRevoked",
      "type": "event"
    },
    {
      "anonymous": false,
      "inputs": [
        {
          "indexed": true,
          "internalType": "address",
          "name": "spender",
          "type": "address"
        },
        {
          "indexed": true,
          "internalType": "address",
          "name": "delegate",
          "type": "address"
        },
        {
          "indexed": true,
          "internalType": "address",
          "name": "feeReceiver",
          "type": "address"
        },
        {
          "indexed": false,
          "internalType": "uint256",
          "name": "fee",
          "type": "uint256"
        },
        {
          "indexed": false,
          "internalType": "uint256",
          "name": "salt",
          "type": "uint256"
        }
      ],
      "name": "Spend",
      "type": "event"
    },
    {
      "inputs": [],
      "name": "DEFAULT_ADMIN_ROLE",
      "outputs": [
        {
          "internalType": "bytes32",
          "name": "",
          "type": "bytes32"
        }
      ],
      "stateMutability": "view",
      "type": "function"
    },
    {
      "inputs": [],
      "name": "MANAGER_ROLE",
      "outputs": [
        {
          "internalType": "bytes32",
          "name": "",
          "type": "bytes32"
        }
      ],
      "stateMutability": "view",
      "type": "function"
    },
    {
      "inputs": [],
      "name": "OWNER_ROLE",
      "outputs": [
        {
          "internalType": "bytes32",
          "name": "",
          "type": "bytes32"
        }
      ],
      "stateMutability": "view",
      "type": "function"
    },
    {
      "inputs": [
        {
          "internalType": "address",
          "name": "_token",
          "type": "address"
        },
        {
          "internalType": "uint256",
          "name": "_salt",
          "type": "uint256"
        },
        {
          "internalType": "address",
          "name": "_feeReciever",
          "type": "address"
        },
        {
          "internalType": "uint256",
          "name": "_fee",
          "type": "uint256"
        },
        {
          "internalType": "address",
          "name": "_delegate",
          "type": "address"
        },
        {
          "internalType": "bytes",
          "name": "_data",
          "type": "bytes"
        }
      ],
      "name": "gaslessTransfer",
      "outputs": [],
      "stateMutability": "nonpayable",
      "type": "function"
    },
    {
      "inputs": [
        {
          "internalType": "uint256",
          "name": "_salt",
          "type": "uint256"
        }
      ],
      "name": "getAddr",
      "outputs": [],
      "stateMutability": "nonpayable",
      "type": "function"
    },
    {
      "inputs": [
        {
          "internalType": "address",
          "name": "_sender",
          "type": "address"
        },
        {
          "internalType": "uint256",
          "name": "_salt",
          "type": "uint256"
        }
      ],
      "name": "getGaslessAddr",
      "outputs": [
        {
          "internalType": "address",
          "name": "",
          "type": "address"
        }
      ],
      "stateMutability": "view",
      "type": "function"
    },
    {
      "inputs": [
        {
          "internalType": "bytes32",
          "name": "role",
          "type": "bytes32"
        }
      ],
      "name": "getRoleAdmin",
      "outputs": [
        {
          "internalType": "bytes32",
          "name": "",
          "type": "bytes32"
        }
      ],
      "stateMutability": "view",
      "type": "function"
    },
    {
      "inputs": [
        {
          "internalType": "bytes32",
          "name": "role",
          "type": "bytes32"
        },
        {
          "internalType": "address",
          "name": "account",
          "type": "address"
        }
      ],
      "name": "grantRole",
      "outputs": [],
      "stateMutability": "nonpayable",
      "type": "function"
    },
    {
      "inputs": [
        {
          "internalType": "bytes32",
          "name": "role",
          "type": "bytes32"
        },
        {
          "internalType": "address",
          "name": "account",
          "type": "address"
        }
      ],
      "name": "hasRole",
      "outputs": [
        {
          "internalType": "bool",
          "name": "",
          "type": "bool"
        }
      ],
      "stateMutability": "view",
      "type": "function"
    },
    {
      "inputs": [
        {
          "internalType": "address",
          "name": "forwarder",
          "type": "address"
        }
      ],
      "name": "isTrustedForwarder",
      "outputs": [
        {
          "internalType": "bool",
          "name": "",
          "type": "bool"
        }
      ],
      "stateMutability": "view",
      "type": "function"
    },
    {
      "inputs": [
        {
          "internalType": "bytes32",
          "name": "role",
          "type": "bytes32"
        },
        {
          "internalType": "address",
          "name": "account",
          "type": "address"
        }
      ],
      "name": "renounceRole",
      "outputs": [],
      "stateMutability": "nonpayable",
      "type": "function"
    },
    {
      "inputs": [
        {
          "internalType": "bytes32",
          "name": "role",
          "type": "bytes32"
        },
        {
          "internalType": "address",
          "name": "account",
          "type": "address"
        }
      ],
      "name": "revokeRole",
      "outputs": [],
      "stateMutability": "nonpayable",
      "type": "function"
    },
    {
      "inputs": [
        {
          "internalType": "uint256",
          "name": "_salt",
          "type": "uint256"
        },
        {
          "internalType": "address",
          "name": "_delegate",
          "type": "address"
        },
        {
          "internalType": "bytes",
          "name": "_data",
          "type": "bytes"
        }
      ],
      "name": "sendToken",
      "outputs": [],
      "stateMutability": "nonpayable",
      "type": "function"
    },
    {
      "inputs": [
        {
          "internalType": "address",
          "name": "_spender",
          "type": "address"
        },
        {
          "internalType": "address",
          "name": "_delegate",
          "type": "address"
        },
        {
          "internalType": "bytes",
          "name": "_data",
          "type": "bytes"
        }
      ],
      "name": "spend",
      "outputs": [],
      "stateMutability": "nonpayable",
      "type": "function"
    },
    {
      "inputs": [
        {
          "internalType": "bytes4",
          "name": "interfaceId",
          "type": "bytes4"
        }
      ],
      "name": "supportsInterface",
      "outputs": [
        {
          "internalType": "bool",
          "name": "",
          "type": "bool"
        }
      ],
      "stateMutability": "view",
      "type": "function"
    }
  ],
  "bytecode": "0x60a06040523480156200001157600080fd5b50604051620029e7380380620029e783398181016040528101906200003791906200030a565b808073ffffffffffffffffffffffffffffffffffffffff1660808173ffffffffffffffffffffffffffffffffffffffff168152505050620000826000801b336200008960201b60201c565b506200033c565b6200009b82826200017a60201b60201c565b6200017657600160008084815260200190815260200160002060000160008373ffffffffffffffffffffffffffffffffffffffff1673ffffffffffffffffffffffffffffffffffffffff16815260200190815260200160002060006101000a81548160ff0219169083151502179055506200011b620001e460201b60201c565b73ffffffffffffffffffffffffffffffffffffffff168173ffffffffffffffffffffffffffffffffffffffff16837f2f8788117e7eff1d82e926ec794901d17c78024a50270940304540a733656f0d60405160405180910390a45b5050565b600080600084815260200190815260200160002060000160008373ffffffffffffffffffffffffffffffffffffffff1673ffffffffffffffffffffffffffffffffffffffff16815260200190815260200160002060009054906101000a900460ff16905092915050565b6000620001fb6200020060201b62000c131760201c565b905090565b600062000213336200024a60201b60201c565b156200022957601436033560601c905062000246565b6200023e6200028460201b62000c451760201c565b905062000247565b5b90565b600060805173ffffffffffffffffffffffffffffffffffffffff168273ffffffffffffffffffffffffffffffffffffffff16149050919050565b600033905090565b600080fd5b600073ffffffffffffffffffffffffffffffffffffffff82169050919050565b6000620002be8262000291565b9050919050565b6000620002d282620002b1565b9050919050565b620002e481620002c5565b8114620002f057600080fd5b50565b6000815190506200030481620002d9565b92915050565b6000602082840312156200032357620003226200028c565b5b60006200033384828501620002f3565b91505092915050565b60805161268f6200035860003960006108ad015261268f6000f3fe608060405234801561001057600080fd5b50600436106100f55760003560e01c8063572b6c0511610097578063d547741f11610066578063d547741f14610294578063d81f84b7146102b0578063e58378bb146102cc578063ec87621c146102ea576100f5565b8063572b6c05146101fa57806375ea408f1461022a57806391d1485414610246578063a217fddf14610276576100f5565b806335a9b76f116100d357806335a9b76f1461017657806336568abe14610192578063403b75a4146101ae57806347f371be146101ca576100f5565b806301ffc9a7146100fa578063248a9ca31461012a5780632f2ff15d1461015a575b600080fd5b610114600480360381019061010f91906111f8565b610308565b6040516101219190611240565b60405180910390f35b610144600480360381019061013f9190611291565b610382565b60405161015191906112cd565b60405180910390f35b610174600480360381019061016f9190611346565b6103a1565b005b610190600480360381019061018b9190611421565b6103c2565b005b6101ac60048036038101906101a79190611346565b6105a3565b005b6101c860048036038101906101c39190611495565b610626565b005b6101e460048036038101906101df9190611544565b61080e565b6040516101f19190611593565b60405180910390f35b610214600480360381019061020f91906115ae565b6108a9565b6040516102219190611240565b60405180910390f35b610244600480360381019061023f91906115db565b610901565b005b610260600480360381019061025b9190611346565b610a80565b60405161026d9190611240565b60405180910390f35b61027e610aea565b60405161028b91906112cd565b60405180910390f35b6102ae60048036038101906102a99190611346565b610af1565b005b6102ca60048036038101906102c5919061164f565b610b12565b005b6102d4610bcb565b6040516102e191906112cd565b60405180910390f35b6102f2610bef565b6040516102ff91906112cd565b60405180910390f35b60007f7965db0b000000000000000000000000000000000000000000000000000000007bffffffffffffffffffffffffffffffffffffffffffffffffffffffff1916827bffffffffffffffffffffffffffffffffffffffffffffffffffffffff1916148061037b575061037a82610c4d565b5b9050919050565b6000806000838152602001908152602001600020600101549050919050565b6103aa82610382565b6103b381610cb7565b6103bd8383610ccb565b505050565b60006103cc610dab565b856040516020016103de92919061168b565b60405160208183030381529060405280519060200120905060008160405161040590611189565b8190604051809103906000f5905080158015610425573d6000803e3d6000fd5b5090508073ffffffffffffffffffffffffffffffffffffffff16630e195dbf8686866040518463ffffffff1660e01b815260040161046593929190611712565b6020604051808303816000875af1158015610484573d6000803e3d6000fd5b505050506040513d601f19601f820116820180604052508101906104a89190611770565b508073ffffffffffffffffffffffffffffffffffffffff1663fe686c976104cd610dab565b6040518263ffffffff1660e01b81526004016104e991906117be565b600060405180830381600087803b15801561050357600080fd5b505af1158015610517573d6000803e3d6000fd5b50505050600073ffffffffffffffffffffffffffffffffffffffff168573ffffffffffffffffffffffffffffffffffffffff168273ffffffffffffffffffffffffffffffffffffffff167f39517675df9990cf1a2c3e5522ecf32355fd61629f4ad0553dddac99d68aa3f660008a60405161059392919061181e565b60405180910390a4505050505050565b6105ab610dab565b73ffffffffffffffffffffffffffffffffffffffff168173ffffffffffffffffffffffffffffffffffffffff1614610618576040517f08c379a000000000000000000000000000000000000000000000000000000000815260040161060f906118ca565b60405180910390fd5b6106228282610dba565b5050565b6000610630610dab565b8760405160200161064292919061168b565b60405160208183030381529060405280519060200120905060008160405161066990611189565b8190604051809103906000f5905080158015610689573d6000803e3d6000fd5b5090508073ffffffffffffffffffffffffffffffffffffffff1663834a1da08a89898989896040518763ffffffff1660e01b81526004016106cf969594939291906118ea565b6020604051808303816000875af11580156106ee573d6000803e3d6000fd5b505050506040513d601f19601f820116820180604052508101906107129190611770565b508073ffffffffffffffffffffffffffffffffffffffff1663fe686c97610737610dab565b6040518263ffffffff1660e01b815260040161075391906117be565b600060405180830381600087803b15801561076d57600080fd5b505af1158015610781573d6000803e3d6000fd5b505050508673ffffffffffffffffffffffffffffffffffffffff168573ffffffffffffffffffffffffffffffffffffffff168273ffffffffffffffffffffffffffffffffffffffff167f39517675df9990cf1a2c3e5522ecf32355fd61629f4ad0553dddac99d68aa3f6898c6040516107fb929190611946565b60405180910390a4505050505050505050565b600080838360405160200161082492919061168b565b604051602081830303815290604052805190602001209050600060ff60f81b30836040518060200161085590611189565b6020820181038252601f19601f82011660405250805190602001206040516020016108839493929190611a25565b6040516020818303038152906040528051906020012060001c9050809250505092915050565b60007f000000000000000000000000000000000000000000000000000000000000000073ffffffffffffffffffffffffffffffffffffffff168273ffffffffffffffffffffffffffffffffffffffff16149050919050565b60008490508073ffffffffffffffffffffffffffffffffffffffff16630e195dbf8585856040518463ffffffff1660e01b815260040161094393929190611712565b6020604051808303816000875af1158015610962573d6000803e3d6000fd5b505050506040513d601f19601f820116820180604052508101906109869190611770565b508073ffffffffffffffffffffffffffffffffffffffff1663fe686c976109ab610dab565b6040518263ffffffff1660e01b81526004016109c791906117be565b600060405180830381600087803b1580156109e157600080fd5b505af11580156109f5573d6000803e3d6000fd5b50505050600073ffffffffffffffffffffffffffffffffffffffff168473ffffffffffffffffffffffffffffffffffffffff168273ffffffffffffffffffffffffffffffffffffffff167f39517675df9990cf1a2c3e5522ecf32355fd61629f4ad0553dddac99d68aa3f6600080604051610a71929190611a73565b60405180910390a45050505050565b600080600084815260200190815260200160002060000160008373ffffffffffffffffffffffffffffffffffffffff1673ffffffffffffffffffffffffffffffffffffffff16815260200190815260200160002060009054906101000a900460ff16905092915050565b6000801b81565b610afa82610382565b610b0381610cb7565b610b0d8383610dba565b505050565b6000610b1c610dab565b82604051602001610b2e92919061168b565b604051602081830303815290604052805190602001209050600081604051610b5590611189565b8190604051809103906000f5905080158015610b75573d6000803e3d6000fd5b5090508073ffffffffffffffffffffffffffffffffffffffff167f6022cb667f890f099686755dacb3083236cbfa2cb1fb56d32f0aef2606d4c6d184604051610bbe9190611a9c565b60405180910390a2505050565b7fb19546dff01e856fb3f010c267a7b1c60363cf8a4664e21cc89c26224620214e81565b7f241ecf16d79d0f8dbfb92cbc07fe17840425976cf0667f022fe9877caa831b0881565b6000610c1e336108a9565b15610c3257601436033560601c9050610c41565b610c3a610c45565b9050610c42565b5b90565b600033905090565b60007f01ffc9a7000000000000000000000000000000000000000000000000000000007bffffffffffffffffffffffffffffffffffffffffffffffffffffffff1916827bffffffffffffffffffffffffffffffffffffffffffffffffffffffff1916149050919050565b610cc881610cc3610dab565b610e9b565b50565b610cd58282610a80565b610da757600160008084815260200190815260200160002060000160008373ffffffffffffffffffffffffffffffffffffffff1673ffffffffffffffffffffffffffffffffffffffff16815260200190815260200160002060006101000a81548160ff021916908315150217905550610d4c610dab565b73ffffffffffffffffffffffffffffffffffffffff168173ffffffffffffffffffffffffffffffffffffffff16837f2f8788117e7eff1d82e926ec794901d17c78024a50270940304540a733656f0d60405160405180910390a45b5050565b6000610db5610c13565b905090565b610dc48282610a80565b15610e9757600080600084815260200190815260200160002060000160008373ffffffffffffffffffffffffffffffffffffffff1673ffffffffffffffffffffffffffffffffffffffff16815260200190815260200160002060006101000a81548160ff021916908315150217905550610e3c610dab565b73ffffffffffffffffffffffffffffffffffffffff168173ffffffffffffffffffffffffffffffffffffffff16837ff6391f5c32d9c69d2a47ea670b442974b53935d1edc7fd64eb21e047a839171b60405160405180910390a45b5050565b610ea58282610a80565b610f1c57610eb281610f20565b610ec08360001c6020610f4d565b604051602001610ed1929190611bc0565b6040516020818303038152906040526040517f08c379a0000000000000000000000000000000000000000000000000000000008152600401610f139190611c33565b60405180910390fd5b5050565b6060610f468273ffffffffffffffffffffffffffffffffffffffff16601460ff16610f4d565b9050919050565b606060006002836002610f609190611c84565b610f6a9190611cc6565b67ffffffffffffffff811115610f8357610f82611cfa565b5b6040519080825280601f01601f191660200182016040528015610fb55781602001600182028036833780820191505090505b5090507f300000000000000000000000000000000000000000000000000000000000000081600081518110610fed57610fec611d29565b5b60200101907effffffffffffffffffffffffffffffffffffffffffffffffffffffffffffff1916908160001a9053507f78000000000000000000000000000000000000000000000000000000000000008160018151811061105157611050611d29565b5b60200101907effffffffffffffffffffffffffffffffffffffffffffffffffffffffffffff1916908160001a905350600060018460026110919190611c84565b61109b9190611cc6565b90505b600181111561113b577f3031323334353637383961626364656600000000000000000000000000000000600f8616601081106110dd576110dc611d29565b5b1a60f81b8282815181106110f4576110f3611d29565b5b60200101907effffffffffffffffffffffffffffffffffffffffffffffffffffffffffffff1916908160001a905350600485901c94508061113490611d58565b905061109e565b506000841461117f576040517f08c379a000000000000000000000000000000000000000000000000000000000815260040161117690611dcd565b60405180910390fd5b8091505092915050565b61086c80611dee83390190565b600080fd5b600080fd5b60007fffffffff0000000000000000000000000000000000000000000000000000000082169050919050565b6111d5816111a0565b81146111e057600080fd5b50565b6000813590506111f2816111cc565b92915050565b60006020828403121561120e5761120d611196565b5b600061121c848285016111e3565b91505092915050565b60008115159050919050565b61123a81611225565b82525050565b60006020820190506112556000830184611231565b92915050565b6000819050919050565b61126e8161125b565b811461127957600080fd5b50565b60008135905061128b81611265565b92915050565b6000602082840312156112a7576112a6611196565b5b60006112b58482850161127c565b91505092915050565b6112c78161125b565b82525050565b60006020820190506112e260008301846112be565b92915050565b600073ffffffffffffffffffffffffffffffffffffffff82169050919050565b6000611313826112e8565b9050919050565b61132381611308565b811461132e57600080fd5b50565b6000813590506113408161131a565b92915050565b6000806040838503121561135d5761135c611196565b5b600061136b8582860161127c565b925050602061137c85828601611331565b9150509250929050565b6000819050919050565b61139981611386565b81146113a457600080fd5b50565b6000813590506113b681611390565b92915050565b600080fd5b600080fd5b600080fd5b60008083601f8401126113e1576113e06113bc565b5b8235905067ffffffffffffffff8111156113fe576113fd6113c1565b5b60208301915083600182028301111561141a576114196113c6565b5b9250929050565b6000806000806060858703121561143b5761143a611196565b5b6000611449878288016113a7565b945050602061145a87828801611331565b935050604085013567ffffffffffffffff81111561147b5761147a61119b565b5b611487878288016113cb565b925092505092959194509250565b600080600080600080600060c0888a0312156114b4576114b3611196565b5b60006114c28a828b01611331565b97505060206114d38a828b016113a7565b96505060406114e48a828b01611331565b95505060606114f58a828b016113a7565b94505060806115068a828b01611331565b93505060a088013567ffffffffffffffff8111156115275761152661119b565b5b6115338a828b016113cb565b925092505092959891949750929550565b6000806040838503121561155b5761155a611196565b5b600061156985828601611331565b925050602061157a858286016113a7565b9150509250929050565b61158d81611308565b82525050565b60006020820190506115a86000830184611584565b92915050565b6000602082840312156115c4576115c3611196565b5b60006115d284828501611331565b91505092915050565b600080600080606085870312156115f5576115f4611196565b5b600061160387828801611331565b945050602061161487828801611331565b935050604085013567ffffffffffffffff8111156116355761163461119b565b5b611641878288016113cb565b925092505092959194509250565b60006020828403121561166557611664611196565b5b6000611673848285016113a7565b91505092915050565b61168581611386565b82525050565b60006040820190506116a06000830185611584565b6116ad602083018461167c565b9392505050565b600082825260208201905092915050565b82818337600083830152505050565b6000601f19601f8301169050919050565b60006116f183856116b4565b93506116fe8385846116c5565b611707836116d4565b840190509392505050565b60006040820190506117276000830186611584565b818103602083015261173a8184866116e5565b9050949350505050565b61174d81611225565b811461175857600080fd5b50565b60008151905061176a81611744565b92915050565b60006020828403121561178657611785611196565b5b60006117948482850161175b565b91505092915050565b60006117a8826112e8565b9050919050565b6117b88161179d565b82525050565b60006020820190506117d360008301846117af565b92915050565b6000819050919050565b6000819050919050565b60006118086118036117fe846117d9565b6117e3565b611386565b9050919050565b611818816117ed565b82525050565b6000604082019050611833600083018561180f565b611840602083018461167c565b9392505050565b600082825260208201905092915050565b7f416363657373436f6e74726f6c3a2063616e206f6e6c792072656e6f756e636560008201527f20726f6c657320666f722073656c660000000000000000000000000000000000602082015250565b60006118b4602f83611847565b91506118bf82611858565b604082019050919050565b600060208201905081810360008301526118e3816118a7565b9050919050565b600060a0820190506118ff6000830189611584565b61190c6020830188611584565b611919604083018761167c565b6119266060830186611584565b81810360808301526119398184866116e5565b9050979650505050505050565b600060408201905061195b600083018561167c565b611968602083018461167c565b9392505050565b60007fff0000000000000000000000000000000000000000000000000000000000000082169050919050565b6000819050919050565b6119b66119b18261196f565b61199b565b82525050565b60008160601b9050919050565b60006119d4826119bc565b9050919050565b60006119e6826119c9565b9050919050565b6119fe6119f982611308565b6119db565b82525050565b6000819050919050565b611a1f611a1a8261125b565b611a04565b82525050565b6000611a3182876119a5565b600182019150611a4182866119ed565b601482019150611a518285611a0e565b602082019150611a618284611a0e565b60208201915081905095945050505050565b6000604082019050611a88600083018561180f565b611a95602083018461180f565b9392505050565b6000602082019050611ab1600083018461167c565b92915050565b600081905092915050565b7f416363657373436f6e74726f6c3a206163636f756e7420000000000000000000600082015250565b6000611af8601783611ab7565b9150611b0382611ac2565b601782019050919050565b600081519050919050565b60005b83811015611b37578082015181840152602081019050611b1c565b60008484015250505050565b6000611b4e82611b0e565b611b588185611ab7565b9350611b68818560208601611b19565b80840191505092915050565b7f206973206d697373696e6720726f6c6520000000000000000000000000000000600082015250565b6000611baa601183611ab7565b9150611bb582611b74565b601182019050919050565b6000611bcb82611aeb565b9150611bd78285611b43565b9150611be282611b9d565b9150611bee8284611b43565b91508190509392505050565b6000611c0582611b0e565b611c0f8185611847565b9350611c1f818560208601611b19565b611c28816116d4565b840191505092915050565b60006020820190508181036000830152611c4d8184611bfa565b905092915050565b7f4e487b7100000000000000000000000000000000000000000000000000000000600052601160045260246000fd5b6000611c8f82611386565b9150611c9a83611386565b9250828202611ca881611386565b91508282048414831517611cbf57611cbe611c55565b5b5092915050565b6000611cd182611386565b9150611cdc83611386565b9250828201905080821115611cf457611cf3611c55565b5b92915050565b7f4e487b7100000000000000000000000000000000000000000000000000000000600052604160045260246000fd5b7f4e487b7100000000000000000000000000000000000000000000000000000000600052603260045260246000fd5b6000611d6382611386565b915060008203611d7657611d75611c55565b5b600182039050919050565b7f537472696e67733a20686578206c656e67746820696e73756666696369656e74600082015250565b6000611db7602083611847565b9150611dc282611d81565b602082019050919050565b60006020820190508181036000830152611de681611daa565b905091905056fe608060405234801561001057600080fd5b5061084c806100206000396000f3fe608060405234801561001057600080fd5b50600436106100415760003560e01c80630e195dbf14610046578063834a1da014610076578063fe686c97146100a6575b600080fd5b610060600480360381019061005b91906103e3565b6100c2565b60405161006d919061045e565b60405180910390f35b610090600480360381019061008b91906104af565b6101eb565b60405161009d919061045e565b60405180910390f35b6100c060048036038101906100bb9190610587565b6102fd565b005b60008073ffffffffffffffffffffffffffffffffffffffff168473ffffffffffffffffffffffffffffffffffffffff1603610132576040517f08c379a000000000000000000000000000000000000000000000000000000000815260040161012990610611565b60405180910390fd5b60008473ffffffffffffffffffffffffffffffffffffffff16848460405161015b929190610670565b600060405180830381855af49150503d8060008114610196576040519150601f19603f3d011682016040523d82523d6000602084013e61019b565b606091505b50509050806101df576040517f08c379a00000000000000000000000000000000000000000000000000000000081526004016101d6906106d5565b60405180910390fd5b60019150509392505050565b6000808790508073ffffffffffffffffffffffffffffffffffffffff1663a9059cbb88886040518363ffffffff1660e01b815260040161022c929190610713565b6020604051808303816000875af115801561024b573d6000803e3d6000fd5b505050506040513d601f19601f8201168201806040525081019061026f9190610768565b503073ffffffffffffffffffffffffffffffffffffffff16630e195dbf8686866040518463ffffffff1660e01b81526004016102ad939291906107e4565b6020604051808303816000875af11580156102cc573d6000803e3d6000fd5b505050506040513d601f19601f820116820180604052508101906102f09190610768565b9150509695505050505050565b8073ffffffffffffffffffffffffffffffffffffffff16ff5b600080fd5b600080fd5b600073ffffffffffffffffffffffffffffffffffffffff82169050919050565b600061034b82610320565b9050919050565b61035b81610340565b811461036657600080fd5b50565b60008135905061037881610352565b92915050565b600080fd5b600080fd5b600080fd5b60008083601f8401126103a3576103a261037e565b5b8235905067ffffffffffffffff8111156103c0576103bf610383565b5b6020830191508360018202830111156103dc576103db610388565b5b9250929050565b6000806000604084860312156103fc576103fb610316565b5b600061040a86828701610369565b935050602084013567ffffffffffffffff81111561042b5761042a61031b565b5b6104378682870161038d565b92509250509250925092565b60008115159050919050565b61045881610443565b82525050565b6000602082019050610473600083018461044f565b92915050565b6000819050919050565b61048c81610479565b811461049757600080fd5b50565b6000813590506104a981610483565b92915050565b60008060008060008060a087890312156104cc576104cb610316565b5b60006104da89828a01610369565b96505060206104eb89828a01610369565b95505060406104fc89828a0161049a565b945050606061050d89828a01610369565b935050608087013567ffffffffffffffff81111561052e5761052d61031b565b5b61053a89828a0161038d565b92509250509295509295509295565b600061055482610320565b9050919050565b61056481610549565b811461056f57600080fd5b50565b6000813590506105818161055b565b92915050565b60006020828403121561059d5761059c610316565b5b60006105ab84828501610572565b91505092915050565b600082825260208201905092915050565b7f44656c65676174652061646472657373206e6f74207365740000000000000000600082015250565b60006105fb6018836105b4565b9150610606826105c5565b602082019050919050565b6000602082019050818103600083015261062a816105ee565b9050919050565b600081905092915050565b82818337600083830152505050565b60006106578385610631565b935061066483858461063c565b82840190509392505050565b600061067d82848661064b565b91508190509392505050565b7f44656c65676174652063616c6c206661696c6564000000000000000000000000600082015250565b60006106bf6014836105b4565b91506106ca82610689565b602082019050919050565b600060208201905081810360008301526106ee816106b2565b9050919050565b6106fe81610340565b82525050565b61070d81610479565b82525050565b600060408201905061072860008301856106f5565b6107356020830184610704565b9392505050565b61074581610443565b811461075057600080fd5b50565b6000815190506107628161073c565b92915050565b60006020828403121561077e5761077d610316565b5b600061078c84828501610753565b91505092915050565b600082825260208201905092915050565b6000601f19601f8301169050919050565b60006107c38385610795565b93506107d083858461063c565b6107d9836107a6565b840190509392505050565b60006040820190506107f960008301866106f5565b818103602083015261080c8184866107b7565b905094935050505056fea2646970667358221220ecf9f33cd40e5fc9f353f2971c5d078cb7ec61f8302105711d73d23d770623ce64736f6c63430008110033a264697066735822122013a96f9e7b7c072dc18417924367179ee9828bcd0dd30fa91a87ab7cc4d1fe2d64736f6c63430008110033",
  "linkReferences": {},
  "deployedLinkReferences": {}
}