{
  "_format": "hh-sol-artifact-1",
  "contractName": "Spender",
  "sourceName": "contracts/Spender.sol",
  "abi": [
    {
      "inputs": [
        {
          "internalType": "address payable",
          "name": "_to",
          "type": "address"
        }
      ],
      "name": "demolish",
      "outputs": [],
      "stateMutability": "nonpayable",
      "type": "function"
    },
    {
      "inputs": [
        {
          "internalType": "address",
          "name": "_delegate",
          "type": "address"
        },
        {
          "internalType": "bytes",
          "name": "_data",
          "type": "bytes"
        }
      ],
      "name": "spend",
      "outputs": [
        {
          "internalType": "bool",
          "name": "success",
          "type": "bool"
        }
      ],
      "stateMutability": "nonpayable",
      "type": "function"
    },
    {
      "inputs": [
        {
          "internalType": "address",
          "name": "_token",
          "type": "address"
        },
        {
          "internalType": "address",
          "name": "_feeReceiver",
          "type": "address"
        },
        {
          "internalType": "uint256",
          "name": "_fee",
          "type": "uint256"
        },
        {
          "internalType": "address",
          "name": "_delegate",
          "type": "address"
        },
        {
          "internalType": "bytes",
          "name": "_data",
          "type": "bytes"
        }
      ],
      "name": "spendWithFee",
      "outputs": [
        {
          "internalType": "bool",
          "name": "success",
          "type": "bool"
        }
      ],
      "stateMutability": "nonpayable",
      "type": "function"
    }
  ],
  "bytecode": "0x608060405234801561001057600080fd5b5061084c806100206000396000f3fe608060405234801561001057600080fd5b50600436106100415760003560e01c80630e195dbf14610046578063834a1da014610076578063fe686c97146100a6575b600080fd5b610060600480360381019061005b91906103e3565b6100c2565b60405161006d919061045e565b60405180910390f35b610090600480360381019061008b91906104af565b6101eb565b60405161009d919061045e565b60405180910390f35b6100c060048036038101906100bb9190610587565b6102fd565b005b60008073ffffffffffffffffffffffffffffffffffffffff168473ffffffffffffffffffffffffffffffffffffffff1603610132576040517f08c379a000000000000000000000000000000000000000000000000000000000815260040161012990610611565b60405180910390fd5b60008473ffffffffffffffffffffffffffffffffffffffff16848460405161015b929190610670565b600060405180830381855af49150503d8060008114610196576040519150601f19603f3d011682016040523d82523d6000602084013e61019b565b606091505b50509050806101df576040517f08c379a00000000000000000000000000000000000000000000000000000000081526004016101d6906106d5565b60405180910390fd5b60019150509392505050565b6000808790508073ffffffffffffffffffffffffffffffffffffffff1663a9059cbb88886040518363ffffffff1660e01b815260040161022c929190610713565b6020604051808303816000875af115801561024b573d6000803e3d6000fd5b505050506040513d601f19601f8201168201806040525081019061026f9190610768565b503073ffffffffffffffffffffffffffffffffffffffff16630e195dbf8686866040518463ffffffff1660e01b81526004016102ad939291906107e4565b6020604051808303816000875af11580156102cc573d6000803e3d6000fd5b505050506040513d601f19601f820116820180604052508101906102f09190610768565b9150509695505050505050565b8073ffffffffffffffffffffffffffffffffffffffff16ff5b600080fd5b600080fd5b600073ffffffffffffffffffffffffffffffffffffffff82169050919050565b600061034b82610320565b9050919050565b61035b81610340565b811461036657600080fd5b50565b60008135905061037881610352565b92915050565b600080fd5b600080fd5b600080fd5b60008083601f8401126103a3576103a261037e565b5b8235905067ffffffffffffffff8111156103c0576103bf610383565b5b6020830191508360018202830111156103dc576103db610388565b5b9250929050565b6000806000604084860312156103fc576103fb610316565b5b600061040a86828701610369565b935050602084013567ffffffffffffffff81111561042b5761042a61031b565b5b6104378682870161038d565b92509250509250925092565b60008115159050919050565b61045881610443565b82525050565b6000602082019050610473600083018461044f565b92915050565b6000819050919050565b61048c81610479565b811461049757600080fd5b50565b6000813590506104a981610483565b92915050565b60008060008060008060a087890312156104cc576104cb610316565b5b60006104da89828a01610369565b96505060206104eb89828a01610369565b95505060406104fc89828a0161049a565b945050606061050d89828a01610369565b935050608087013567ffffffffffffffff81111561052e5761052d61031b565b5b61053a89828a0161038d565b92509250509295509295509295565b600061055482610320565b9050919050565b61056481610549565b811461056f57600080fd5b50565b6000813590506105818161055b565b92915050565b60006020828403121561059d5761059c610316565b5b60006105ab84828501610572565b91505092915050565b600082825260208201905092915050565b7f44656c65676174652061646472657373206e6f74207365740000000000000000600082015250565b60006105fb6018836105b4565b9150610606826105c5565b602082019050919050565b6000602082019050818103600083015261062a816105ee565b9050919050565b600081905092915050565b82818337600083830152505050565b60006106578385610631565b935061066483858461063c565b82840190509392505050565b600061067d82848661064b565b91508190509392505050565b7f44656c65676174652063616c6c206661696c6564000000000000000000000000600082015250565b60006106bf6014836105b4565b91506106ca82610689565b602082019050919050565b600060208201905081810360008301526106ee816106b2565b9050919050565b6106fe81610340565b82525050565b61070d81610479565b82525050565b600060408201905061072860008301856106f5565b6107356020830184610704565b9392505050565b61074581610443565b811461075057600080fd5b50565b6000815190506107628161073c565b92915050565b60006020828403121561077e5761077d610316565b5b600061078c84828501610753565b91505092915050565b600082825260208201905092915050565b6000601f19601f8301169050919050565b60006107c38385610795565b93506107d083858461063c565b6107d9836107a6565b840190509392505050565b60006040820190506107f960008301866106f5565b818103602083015261080c8184866107b7565b905094935050505056fea2646970667358221220ecf9f33cd40e5fc9f353f2971c5d078cb7ec61f8302105711d73d23d770623ce64736f6c63430008110033",
  "linkReferences": {},
  "deployedLinkReferences": {}
}