{
  "_format": "hh-sol-artifact-1",
  "contractName": "Manager",
  "sourceName": "contracts/Manager.sol",
  "abi": [
    {
      "inputs": [],
      "stateMutability": "nonpayable",
      "type": "constructor"
    },
    {
      "anonymous": false,
      "inputs": [
        {
          "indexed": true,
          "internalType": "bytes32",
          "name": "role",
          "type": "bytes32"
        },
        {
          "indexed": true,
          "internalType": "bytes32",
          "name": "previousAdminRole",
          "type": "bytes32"
        },
        {
          "indexed": true,
          "internalType": "bytes32",
          "name": "newAdminRole",
          "type": "bytes32"
        }
      ],
      "name": "RoleAdminChanged",
      "type": "event"
    },
    {
      "anonymous": false,
      "inputs": [
        {
          "indexed": true,
          "internalType": "bytes32",
          "name": "role",
          "type": "bytes32"
        },
        {
          "indexed": true,
          "internalType": "address",
          "name": "account",
          "type": "address"
        },
        {
          "indexed": true,
          "internalType": "address",
          "name": "sender",
          "type": "address"
        }
      ],
      "name": "RoleGranted",
      "type": "event"
    },
    {
      "anonymous": false,
      "inputs": [
        {
          "indexed": true,
          "internalType": "bytes32",
          "name": "role",
          "type": "bytes32"
        },
        {
          "indexed": true,
          "internalType": "address",
          "name": "account",
          "type": "address"
        },
        {
          "indexed": true,
          "internalType": "address",
          "name": "sender",
          "type": "address"
        }
      ],
      "name": "RoleRevoked",
      "type": "event"
    },
    {
      "anonymous": false,
      "inputs": [
        {
          "indexed": true,
          "internalType": "address",
          "name": "token",
          "type": "address"
        },
        {
          "indexed": false,
          "internalType": "address",
          "name": "functionName",
          "type": "address"
        },
        {
          "indexed": false,
          "internalType": "uint256",
          "name": "fee",
          "type": "uint256"
        },
        {
          "indexed": false,
          "internalType": "string",
          "name": "name",
          "type": "string"
        }
      ],
      "name": "TokenAdded",
      "type": "event"
    },
    {
      "anonymous": false,
      "inputs": [
        {
          "indexed": true,
          "internalType": "address",
          "name": "token",
          "type": "address"
        }
      ],
      "name": "TokenRemoved",
      "type": "event"
    },
    {
      "anonymous": false,
      "inputs": [
        {
          "indexed": true,
          "internalType": "address",
          "name": "token",
          "type": "address"
        },
        {
          "indexed": false,
          "internalType": "address",
          "name": "func",
          "type": "address"
        },
        {
          "indexed": false,
          "internalType": "uint256",
          "name": "fee",
          "type": "uint256"
        },
        {
          "indexed": false,
          "internalType": "string",
          "name": "funtionName",
          "type": "string"
        }
      ],
      "name": "TokenUpdated",
      "type": "event"
    },
    {
      "anonymous": false,
      "inputs": [
        {
          "indexed": true,
          "internalType": "address",
          "name": "token",
          "type": "address"
        },
        {
          "indexed": false,
          "internalType": "uint256",
          "name": "fee",
          "type": "uint256"
        }
      ],
      "name": "Validated",
      "type": "event"
    },
    {
      "inputs": [],
      "name": "DEFAULT_ADMIN_ROLE",
      "outputs": [
        {
          "internalType": "bytes32",
          "name": "",
          "type": "bytes32"
        }
      ],
      "stateMutability": "view",
      "type": "function"
    },
    {
      "inputs": [],
      "name": "MANAGER_ROLE",
      "outputs": [
        {
          "internalType": "bytes32",
          "name": "",
          "type": "bytes32"
        }
      ],
      "stateMutability": "view",
      "type": "function"
    },
    {
      "inputs": [],
      "name": "OWNER_ROLE",
      "outputs": [
        {
          "internalType": "bytes32",
          "name": "",
          "type": "bytes32"
        }
      ],
      "stateMutability": "view",
      "type": "function"
    },
    {
      "inputs": [
        {
          "internalType": "address",
          "name": "_token",
          "type": "address"
        },
        {
          "internalType": "address",
          "name": "_function",
          "type": "address"
        },
        {
          "internalType": "uint256",
          "name": "_fee",
          "type": "uint256"
        },
        {
          "internalType": "string",
          "name": "_functionName",
          "type": "string"
        }
      ],
      "name": "addNewToken",
      "outputs": [
        {
          "internalType": "bool",
          "name": "success",
          "type": "bool"
        }
      ],
      "stateMutability": "nonpayable",
      "type": "function"
    },
    {
      "inputs": [
        {
          "internalType": "bytes32",
          "name": "role",
          "type": "bytes32"
        }
      ],
      "name": "getRoleAdmin",
      "outputs": [
        {
          "internalType": "bytes32",
          "name": "",
          "type": "bytes32"
        }
      ],
      "stateMutability": "view",
      "type": "function"
    },
    {
      "inputs": [
        {
          "internalType": "address",
          "name": "_token",
          "type": "address"
        },
        {
          "internalType": "address",
          "name": "_function",
          "type": "address"
        }
      ],
      "name": "getTokenFee",
      "outputs": [
        {
          "internalType": "uint256",
          "name": "_fee",
          "type": "uint256"
        }
      ],
      "stateMutability": "view",
      "type": "function"
    },
    {
      "inputs": [
        {
          "internalType": "bytes32",
          "name": "role",
          "type": "bytes32"
        },
        {
          "internalType": "address",
          "name": "account",
          "type": "address"
        }
      ],
      "name": "grantRole",
      "outputs": [],
      "stateMutability": "nonpayable",
      "type": "function"
    },
    {
      "inputs": [
        {
          "internalType": "bytes32",
          "name": "role",
          "type": "bytes32"
        },
        {
          "internalType": "address",
          "name": "account",
          "type": "address"
        }
      ],
      "name": "hasRole",
      "outputs": [
        {
          "internalType": "bool",
          "name": "",
          "type": "bool"
        }
      ],
      "stateMutability": "view",
      "type": "function"
    },
    {
      "inputs": [
        {
          "internalType": "address",
          "name": "_token",
          "type": "address"
        }
      ],
      "name": "removeToken",
      "outputs": [
        {
          "internalType": "bool",
          "name": "success",
          "type": "bool"
        }
      ],
      "stateMutability": "nonpayable",
      "type": "function"
    },
    {
      "inputs": [
        {
          "internalType": "bytes32",
          "name": "role",
          "type": "bytes32"
        },
        {
          "internalType": "address",
          "name": "account",
          "type": "address"
        }
      ],
      "name": "renounceRole",
      "outputs": [],
      "stateMutability": "nonpayable",
      "type": "function"
    },
    {
      "inputs": [
        {
          "internalType": "bytes32",
          "name": "role",
          "type": "bytes32"
        },
        {
          "internalType": "address",
          "name": "account",
          "type": "address"
        }
      ],
      "name": "revokeRole",
      "outputs": [],
      "stateMutability": "nonpayable",
      "type": "function"
    },
    {
      "inputs": [
        {
          "internalType": "address",
          "name": "_token",
          "type": "address"
        },
        {
          "internalType": "address",
          "name": "_function",
          "type": "address"
        },
        {
          "internalType": "uint256",
          "name": "_fee",
          "type": "uint256"
        },
        {
          "internalType": "string",
          "name": "_funtionName",
          "type": "string"
        }
      ],
      "name": "setTokenFee",
      "outputs": [
        {
          "internalType": "bool",
          "name": "success",
          "type": "bool"
        }
      ],
      "stateMutability": "nonpayable",
      "type": "function"
    },
    {
      "inputs": [
        {
          "internalType": "bytes4",
          "name": "interfaceId",
          "type": "bytes4"
        }
      ],
      "name": "supportsInterface",
      "outputs": [
        {
          "internalType": "bool",
          "name": "",
          "type": "bool"
        }
      ],
      "stateMutability": "view",
      "type": "function"
    },
    {
      "inputs": [
        {
          "internalType": "address",
          "name": "",
          "type": "address"
        },
        {
          "internalType": "address",
          "name": "",
          "type": "address"
        }
      ],
      "name": "tokenFee",
      "outputs": [
        {
          "internalType": "uint256",
          "name": "",
          "type": "uint256"
        }
      ],
      "stateMutability": "view",
      "type": "function"
    },
    {
      "inputs": [
        {
          "internalType": "address",
          "name": "",
          "type": "address"
        }
      ],
      "name": "tokens",
      "outputs": [
        {
          "internalType": "bool",
          "name": "",
          "type": "bool"
        }
      ],
      "stateMutability": "view",
      "type": "function"
    },
    {
      "inputs": [
        {
          "internalType": "address",
          "name": "_token",
          "type": "address"
        },
        {
          "internalType": "address",
          "name": "_function",
          "type": "address"
        },
        {
          "internalType": "address",
          "name": "_feeReceiver",
          "type": "address"
        },
        {
          "internalType": "uint256",
          "name": "_fee",
          "type": "uint256"
        }
      ],
      "name": "validate",
      "outputs": [
        {
          "internalType": "bool",
          "name": "success",
          "type": "bool"
        }
      ],
      "stateMutability": "view",
      "type": "function"
    },
    {
      "inputs": [
        {
          "internalType": "address payable",
          "name": "_to",
          "type": "address"
        },
        {
          "internalType": "uint256",
          "name": "_value",
          "type": "uint256"
        }
      ],
      "name": "withdraw",
      "outputs": [
        {
          "internalType": "bool",
          "name": "success",
          "type": "bool"
        }
      ],
      "stateMutability": "nonpayable",
      "type": "function"
    },
    {
      "inputs": [
        {
          "internalType": "address",
          "name": "_token",
          "type": "address"
        },
        {
          "internalType": "address",
          "name": "_to",
          "type": "address"
        },
        {
          "internalType": "uint256",
          "name": "_value",
          "type": "uint256"
        }
      ],
      "name": "withdrawToken",
      "outputs": [
        {
          "internalType": "bool",
          "name": "success",
          "type": "bool"
        }
      ],
      "stateMutability": "nonpayable",
      "type": "function"
    }
  ],
  "bytecode": "0x60806040523480156200001157600080fd5b50620000276000801b336200002d60201b60201c565b62000190565b6200003f82826200011e60201b60201c565b6200011a57600160008084815260200190815260200160002060000160008373ffffffffffffffffffffffffffffffffffffffff1673ffffffffffffffffffffffffffffffffffffffff16815260200190815260200160002060006101000a81548160ff021916908315150217905550620000bf6200018860201b60201c565b73ffffffffffffffffffffffffffffffffffffffff168173ffffffffffffffffffffffffffffffffffffffff16837f2f8788117e7eff1d82e926ec794901d17c78024a50270940304540a733656f0d60405160405180910390a45b5050565b600080600084815260200190815260200160002060000160008373ffffffffffffffffffffffffffffffffffffffff1673ffffffffffffffffffffffffffffffffffffffff16815260200190815260200160002060009054906101000a900460ff16905092915050565b600033905090565b61209f80620001a06000396000f3fe608060405234801561001057600080fd5b50600436106101165760003560e01c8063853f3521116100a2578063e486033911610071578063e48603391461033d578063e58378bb1461036d578063ec87621c1461038b578063f3fef3a3146103a9578063fd875ec3146103d957610116565b8063853f3521146102a357806391d14854146102d3578063a217fddf14610303578063d547741f1461032157610116565b80632f2ff15d116100e95780632f2ff15d146101db57806336568abe146101f757806353f3afd8146102135780635fa7b58414610243578063723711931461027357610116565b806301e336671461011b57806301ffc9a71461014b578063248a9ca31461017b5780632c21f819146101ab575b600080fd5b61013560048036038101906101309190611422565b610409565b6040516101429190611490565b60405180910390f35b61016560048036038101906101609190611503565b6104a3565b6040516101729190611490565b60405180910390f35b61019560048036038101906101909190611566565b61051d565b6040516101a291906115a2565b60405180910390f35b6101c560048036038101906101c091906115bd565b61053c565b6040516101d29190611490565b60405180910390f35b6101f560048036038101906101f09190611624565b61070b565b005b610211600480360381019061020c9190611624565b61072c565b005b61022d600480360381019061022891906117aa565b6107af565b60405161023a9190611490565b60405180910390f35b61025d6004803603810190610258919061182d565b61092a565b60405161026a9190611490565b60405180910390f35b61028d600480360381019061028891906117aa565b610a6a565b60405161029a9190611490565b60405180910390f35b6102bd60048036038101906102b8919061185a565b610c3e565b6040516102ca91906118a9565b60405180910390f35b6102ed60048036038101906102e89190611624565b610cc5565b6040516102fa9190611490565b60405180910390f35b61030b610d2f565b60405161031891906115a2565b60405180910390f35b61033b60048036038101906103369190611624565b610d36565b005b6103576004803603810190610352919061182d565b610d57565b6040516103649190611490565b60405180910390f35b610375610d77565b60405161038291906115a2565b60405180910390f35b610393610d9b565b6040516103a091906115a2565b60405180910390f35b6103c360048036038101906103be9190611902565b610dbf565b6040516103d09190611490565b60405180910390f35b6103f360048036038101906103ee919061185a565b610e20565b60405161040091906118a9565b60405180910390f35b60008060001b61041881610e45565b8473ffffffffffffffffffffffffffffffffffffffff1663a9059cbb85856040518363ffffffff1660e01b8152600401610453929190611951565b6020604051808303816000875af1158015610472573d6000803e3d6000fd5b505050506040513d601f19601f8201168201806040525081019061049691906119a6565b5060019150509392505050565b60007f7965db0b000000000000000000000000000000000000000000000000000000007bffffffffffffffffffffffffffffffffffffffffffffffffffffffff1916827bffffffffffffffffffffffffffffffffffffffffffffffffffffffff19161480610516575061051582610e59565b5b9050919050565b6000806000838152602001908152602001600020600101549050919050565b6000823073ffffffffffffffffffffffffffffffffffffffff168173ffffffffffffffffffffffffffffffffffffffff16146105ad576040517f08c379a00000000000000000000000000000000000000000000000000000000081526004016105a490611a56565b60405180910390fd5b828686600160008373ffffffffffffffffffffffffffffffffffffffff1673ffffffffffffffffffffffffffffffffffffffff16815260200190815260200160002060008273ffffffffffffffffffffffffffffffffffffffff1673ffffffffffffffffffffffffffffffffffffffff1681526020019081526020016000205483101561066f576040517f08c379a000000000000000000000000000000000000000000000000000000000815260040161066690611ac2565b60405180910390fd5b600260008a73ffffffffffffffffffffffffffffffffffffffff1673ffffffffffffffffffffffffffffffffffffffff16815260200190815260200160002060009054906101000a900460ff166106fb576040517f08c379a00000000000000000000000000000000000000000000000000000000081526004016106f290611b2e565b60405180910390fd5b6001945050505050949350505050565b6107148261051d565b61071d81610e45565b6107278383610ec3565b505050565b610734610fa3565b73ffffffffffffffffffffffffffffffffffffffff168173ffffffffffffffffffffffffffffffffffffffff16146107a1576040517f08c379a000000000000000000000000000000000000000000000000000000000815260040161079890611bc0565b60405180910390fd5b6107ab8282610fab565b5050565b60008060001b6107be81610e45565b600260008773ffffffffffffffffffffffffffffffffffffffff1673ffffffffffffffffffffffffffffffffffffffff16815260200190815260200160002060009054906101000a900460ff1661084a576040517f08c379a000000000000000000000000000000000000000000000000000000000815260040161084190611c2c565b60405180910390fd5b83600160008873ffffffffffffffffffffffffffffffffffffffff1673ffffffffffffffffffffffffffffffffffffffff16815260200190815260200160002060008773ffffffffffffffffffffffffffffffffffffffff1673ffffffffffffffffffffffffffffffffffffffff168152602001908152602001600020819055508573ffffffffffffffffffffffffffffffffffffffff167f87629362de881032661887782287193f34a6c262470791a796ab8a9721e84ce586868660405161091593929190611cba565b60405180910390a26001915050949350505050565b60008060001b61093981610e45565b600260008473ffffffffffffffffffffffffffffffffffffffff1673ffffffffffffffffffffffffffffffffffffffff16815260200190815260200160002060009054906101000a900460ff166109c5576040517f08c379a00000000000000000000000000000000000000000000000000000000081526004016109bc90611d44565b60405180910390fd5b6000600260008573ffffffffffffffffffffffffffffffffffffffff1673ffffffffffffffffffffffffffffffffffffffff16815260200190815260200160002060006101000a81548160ff0219169083151502179055508273ffffffffffffffffffffffffffffffffffffffff167f4c910b69fe65a61f7531b9c5042b2329ca7179c77290aa7e2eb3afa3c8511fd360405160405180910390a26001915050919050565b60008060001b610a7981610e45565b600260008773ffffffffffffffffffffffffffffffffffffffff1673ffffffffffffffffffffffffffffffffffffffff16815260200190815260200160002060009054906101000a900460ff1615610b06576040517f08c379a0000000000000000000000000000000000000000000000000000000008152600401610afd90611db0565b60405180910390fd5b6001600260008873ffffffffffffffffffffffffffffffffffffffff1673ffffffffffffffffffffffffffffffffffffffff16815260200190815260200160002060006101000a81548160ff02191690831515021790555083600160008873ffffffffffffffffffffffffffffffffffffffff1673ffffffffffffffffffffffffffffffffffffffff16815260200190815260200160002060008773ffffffffffffffffffffffffffffffffffffffff1673ffffffffffffffffffffffffffffffffffffffff168152602001908152602001600020819055508573ffffffffffffffffffffffffffffffffffffffff167f250a1e367759e06977b23ca33c4fc06f7d081ef4c9b1efa9cb7b3b4578f6fa55868686604051610c2993929190611cba565b60405180910390a26001915050949350505050565b6000600160008473ffffffffffffffffffffffffffffffffffffffff1673ffffffffffffffffffffffffffffffffffffffff16815260200190815260200160002060008373ffffffffffffffffffffffffffffffffffffffff1673ffffffffffffffffffffffffffffffffffffffff16815260200190815260200160002054905092915050565b600080600084815260200190815260200160002060000160008373ffffffffffffffffffffffffffffffffffffffff1673ffffffffffffffffffffffffffffffffffffffff16815260200190815260200160002060009054906101000a900460ff16905092915050565b6000801b81565b610d3f8261051d565b610d4881610e45565b610d528383610fab565b505050565b60026020528060005260406000206000915054906101000a900460ff1681565b7fb19546dff01e856fb3f010c267a7b1c60363cf8a4664e21cc89c26224620214e81565b7f241ecf16d79d0f8dbfb92cbc07fe17840425976cf0667f022fe9877caa831b0881565b60008060001b610dce81610e45565b8373ffffffffffffffffffffffffffffffffffffffff166108fc849081150290604051600060405180830381858888f19350505050158015610e14573d6000803e3d6000fd5b50600191505092915050565b6001602052816000526040600020602052806000526040600020600091509150505481565b610e5681610e51610fa3565b61108c565b50565b60007f01ffc9a7000000000000000000000000000000000000000000000000000000007bffffffffffffffffffffffffffffffffffffffffffffffffffffffff1916827bffffffffffffffffffffffffffffffffffffffffffffffffffffffff1916149050919050565b610ecd8282610cc5565b610f9f57600160008084815260200190815260200160002060000160008373ffffffffffffffffffffffffffffffffffffffff1673ffffffffffffffffffffffffffffffffffffffff16815260200190815260200160002060006101000a81548160ff021916908315150217905550610f44610fa3565b73ffffffffffffffffffffffffffffffffffffffff168173ffffffffffffffffffffffffffffffffffffffff16837f2f8788117e7eff1d82e926ec794901d17c78024a50270940304540a733656f0d60405160405180910390a45b5050565b600033905090565b610fb58282610cc5565b1561108857600080600084815260200190815260200160002060000160008373ffffffffffffffffffffffffffffffffffffffff1673ffffffffffffffffffffffffffffffffffffffff16815260200190815260200160002060006101000a81548160ff02191690831515021790555061102d610fa3565b73ffffffffffffffffffffffffffffffffffffffff168173ffffffffffffffffffffffffffffffffffffffff16837ff6391f5c32d9c69d2a47ea670b442974b53935d1edc7fd64eb21e047a839171b60405160405180910390a45b5050565b6110968282610cc5565b61110d576110a381611111565b6110b18360001c602061113e565b6040516020016110c2929190611ea4565b6040516020818303038152906040526040517f08c379a00000000000000000000000000000000000000000000000000000000081526004016111049190611ede565b60405180910390fd5b5050565b60606111378273ffffffffffffffffffffffffffffffffffffffff16601460ff1661113e565b9050919050565b6060600060028360026111519190611f2f565b61115b9190611f71565b67ffffffffffffffff8111156111745761117361167f565b5b6040519080825280601f01601f1916602001820160405280156111a65781602001600182028036833780820191505090505b5090507f3000000000000000000000000000000000000000000000000000000000000000816000815181106111de576111dd611fa5565b5b60200101907effffffffffffffffffffffffffffffffffffffffffffffffffffffffffffff1916908160001a9053507f78000000000000000000000000000000000000000000000000000000000000008160018151811061124257611241611fa5565b5b60200101907effffffffffffffffffffffffffffffffffffffffffffffffffffffffffffff1916908160001a905350600060018460026112829190611f2f565b61128c9190611f71565b90505b600181111561132c577f3031323334353637383961626364656600000000000000000000000000000000600f8616601081106112ce576112cd611fa5565b5b1a60f81b8282815181106112e5576112e4611fa5565b5b60200101907effffffffffffffffffffffffffffffffffffffffffffffffffffffffffffff1916908160001a905350600485901c94508061132590611fd4565b905061128f565b5060008414611370576040517f08c379a000000000000000000000000000000000000000000000000000000000815260040161136790612049565b60405180910390fd5b8091505092915050565b6000604051905090565b600080fd5b600080fd5b600073ffffffffffffffffffffffffffffffffffffffff82169050919050565b60006113b98261138e565b9050919050565b6113c9816113ae565b81146113d457600080fd5b50565b6000813590506113e6816113c0565b92915050565b6000819050919050565b6113ff816113ec565b811461140a57600080fd5b50565b60008135905061141c816113f6565b92915050565b60008060006060848603121561143b5761143a611384565b5b6000611449868287016113d7565b935050602061145a868287016113d7565b925050604061146b8682870161140d565b9150509250925092565b60008115159050919050565b61148a81611475565b82525050565b60006020820190506114a56000830184611481565b92915050565b60007fffffffff0000000000000000000000000000000000000000000000000000000082169050919050565b6114e0816114ab565b81146114eb57600080fd5b50565b6000813590506114fd816114d7565b92915050565b60006020828403121561151957611518611384565b5b6000611527848285016114ee565b91505092915050565b6000819050919050565b61154381611530565b811461154e57600080fd5b50565b6000813590506115608161153a565b92915050565b60006020828403121561157c5761157b611384565b5b600061158a84828501611551565b91505092915050565b61159c81611530565b82525050565b60006020820190506115b76000830184611593565b92915050565b600080600080608085870312156115d7576115d6611384565b5b60006115e5878288016113d7565b94505060206115f6878288016113d7565b9350506040611607878288016113d7565b92505060606116188782880161140d565b91505092959194509250565b6000806040838503121561163b5761163a611384565b5b600061164985828601611551565b925050602061165a858286016113d7565b9150509250929050565b600080fd5b600080fd5b6000601f19601f8301169050919050565b7f4e487b7100000000000000000000000000000000000000000000000000000000600052604160045260246000fd5b6116b78261166e565b810181811067ffffffffffffffff821117156116d6576116d561167f565b5b80604052505050565b60006116e961137a565b90506116f582826116ae565b919050565b600067ffffffffffffffff8211156117155761171461167f565b5b61171e8261166e565b9050602081019050919050565b82818337600083830152505050565b600061174d611748846116fa565b6116df565b90508281526020810184848401111561176957611768611669565b5b61177484828561172b565b509392505050565b600082601f83011261179157611790611664565b5b81356117a184826020860161173a565b91505092915050565b600080600080608085870312156117c4576117c3611384565b5b60006117d2878288016113d7565b94505060206117e3878288016113d7565b93505060406117f48782880161140d565b925050606085013567ffffffffffffffff81111561181557611814611389565b5b6118218782880161177c565b91505092959194509250565b60006020828403121561184357611842611384565b5b6000611851848285016113d7565b91505092915050565b6000806040838503121561187157611870611384565b5b600061187f858286016113d7565b9250506020611890858286016113d7565b9150509250929050565b6118a3816113ec565b82525050565b60006020820190506118be600083018461189a565b92915050565b60006118cf8261138e565b9050919050565b6118df816118c4565b81146118ea57600080fd5b50565b6000813590506118fc816118d6565b92915050565b6000806040838503121561191957611918611384565b5b6000611927858286016118ed565b92505060206119388582860161140d565b9150509250929050565b61194b816113ae565b82525050565b60006040820190506119666000830185611942565b611973602083018461189a565b9392505050565b61198381611475565b811461198e57600080fd5b50565b6000815190506119a08161197a565b92915050565b6000602082840312156119bc576119bb611384565b5b60006119ca84828501611991565b91505092915050565b600082825260208201905092915050565b7f4d616e616765722063616e6e6f7420626520746865206665652072656365697660008201527f6572000000000000000000000000000000000000000000000000000000000000602082015250565b6000611a406022836119d3565b9150611a4b826119e4565b604082019050919050565b60006020820190508181036000830152611a6f81611a33565b9050919050565b7f466565206973206e6f742073756666696369656e740000000000000000000000600082015250565b6000611aac6015836119d3565b9150611ab782611a76565b602082019050919050565b60006020820190508181036000830152611adb81611a9f565b9050919050565b7f556e737570706f7274656420746f6b656e000000000000000000000000000000600082015250565b6000611b186011836119d3565b9150611b2382611ae2565b602082019050919050565b60006020820190508181036000830152611b4781611b0b565b9050919050565b7f416363657373436f6e74726f6c3a2063616e206f6e6c792072656e6f756e636560008201527f20726f6c657320666f722073656c660000000000000000000000000000000000602082015250565b6000611baa602f836119d3565b9150611bb582611b4e565b604082019050919050565b60006020820190508181036000830152611bd981611b9d565b9050919050565b7f546f6b656e206973206e6f742079657420737570706f72746564000000000000600082015250565b6000611c16601a836119d3565b9150611c2182611be0565b602082019050919050565b60006020820190508181036000830152611c4581611c09565b9050919050565b600081519050919050565b60005b83811015611c75578082015181840152602081019050611c5a565b60008484015250505050565b6000611c8c82611c4c565b611c9681856119d3565b9350611ca6818560208601611c57565b611caf8161166e565b840191505092915050565b6000606082019050611ccf6000830186611942565b611cdc602083018561189a565b8181036040830152611cee8184611c81565b9050949350505050565b7f546f6b656e20646f6573206e6f74206578697374000000000000000000000000600082015250565b6000611d2e6014836119d3565b9150611d3982611cf8565b602082019050919050565b60006020820190508181036000830152611d5d81611d21565b9050919050565b7f546f6b656e20616c726561647920657869737400000000000000000000000000600082015250565b6000611d9a6013836119d3565b9150611da582611d64565b602082019050919050565b60006020820190508181036000830152611dc981611d8d565b9050919050565b600081905092915050565b7f416363657373436f6e74726f6c3a206163636f756e7420000000000000000000600082015250565b6000611e11601783611dd0565b9150611e1c82611ddb565b601782019050919050565b6000611e3282611c4c565b611e3c8185611dd0565b9350611e4c818560208601611c57565b80840191505092915050565b7f206973206d697373696e6720726f6c6520000000000000000000000000000000600082015250565b6000611e8e601183611dd0565b9150611e9982611e58565b601182019050919050565b6000611eaf82611e04565b9150611ebb8285611e27565b9150611ec682611e81565b9150611ed28284611e27565b91508190509392505050565b60006020820190508181036000830152611ef88184611c81565b905092915050565b7f4e487b7100000000000000000000000000000000000000000000000000000000600052601160045260246000fd5b6000611f3a826113ec565b9150611f45836113ec565b9250828202611f53816113ec565b91508282048414831517611f6a57611f69611f00565b5b5092915050565b6000611f7c826113ec565b9150611f87836113ec565b9250828201905080821115611f9f57611f9e611f00565b5b92915050565b7f4e487b7100000000000000000000000000000000000000000000000000000000600052603260045260246000fd5b6000611fdf826113ec565b915060008203611ff257611ff1611f00565b5b600182039050919050565b7f537472696e67733a20686578206c656e67746820696e73756666696369656e74600082015250565b60006120336020836119d3565b915061203e82611ffd565b602082019050919050565b6000602082019050818103600083015261206281612026565b905091905056fea2646970667358221220d0d55f720ec2d1313aaf6ad3a7efed3dfbb8c8d56e31bf288ce922520ac1b2e164736f6c63430008110033",
  "linkReferences": {},
  "deployedLinkReferences": {}
}