{
  "_format": "hh-sol-artifact-1",
  "contractName": "Minter",
  "sourceName": "contracts/Minter.sol",
  "abi": [
    {
      "inputs": [
        {
          "internalType": "contract MinimalForwarder",
          "name": "_forwarder",
          "type": "address"
        }
      ],
      "stateMutability": "nonpayable",
      "type": "constructor"
    },
    {
      "anonymous": false,
      "inputs": [
        {
          "indexed": true,
          "internalType": "bytes32",
          "name": "role",
          "type": "bytes32"
        },
        {
          "indexed": true,
          "internalType": "bytes32",
          "name": "previousAdminRole",
          "type": "bytes32"
        },
        {
          "indexed": true,
          "internalType": "bytes32",
          "name": "newAdminRole",
          "type": "bytes32"
        }
      ],
      "name": "RoleAdminChanged",
      "type": "event"
    },
    {
      "anonymous": false,
      "inputs": [
        {
          "indexed": true,
          "internalType": "bytes32",
          "name": "role",
          "type": "bytes32"
        },
        {
          "indexed": true,
          "internalType": "address",
          "name": "account",
          "type": "address"
        },
        {
          "indexed": true,
          "internalType": "address",
          "name": "sender",
          "type": "address"
        }
      ],
      "name": "RoleGranted",
      "type": "event"
    },
    {
      "anonymous": false,
      "inputs": [
        {
          "indexed": true,
          "internalType": "bytes32",
          "name": "role",
          "type": "bytes32"
        },
        {
          "indexed": true,
          "internalType": "address",
          "name": "account",
          "type": "address"
        },
        {
          "indexed": true,
          "internalType": "address",
          "name": "sender",
          "type": "address"
        }
      ],
      "name": "RoleRevoked",
      "type": "event"
    },
    {
      "anonymous": false,
      "inputs": [
        {
          "indexed": true,
          "internalType": "address",
          "name": "token",
          "type": "address"
        },
        {
          "indexed": false,
          "internalType": "address",
          "name": "referee",
          "type": "address"
        },
        {
          "indexed": true,
          "internalType": "address",
          "name": "minter",
          "type": "address"
        },
        {
          "indexed": false,
          "internalType": "uint256",
          "name": "value",
          "type": "uint256"
        }
      ],
      "name": "TokenMinted",
      "type": "event"
    },
    {
      "inputs": [],
      "name": "DEFAULT_ADMIN_ROLE",
      "outputs": [
        {
          "internalType": "bytes32",
          "name": "",
          "type": "bytes32"
        }
      ],
      "stateMutability": "view",
      "type": "function"
    },
    {
      "inputs": [],
      "name": "MANAGER_ROLE",
      "outputs": [
        {
          "internalType": "bytes32",
          "name": "",
          "type": "bytes32"
        }
      ],
      "stateMutability": "view",
      "type": "function"
    },
    {
      "inputs": [],
      "name": "OWNER_ROLE",
      "outputs": [
        {
          "internalType": "bytes32",
          "name": "",
          "type": "bytes32"
        }
      ],
      "stateMutability": "view",
      "type": "function"
    },
    {
      "inputs": [],
      "name": "factoryAddress",
      "outputs": [
        {
          "internalType": "address",
          "name": "",
          "type": "address"
        }
      ],
      "stateMutability": "view",
      "type": "function"
    },
    {
      "inputs": [
        {
          "internalType": "bytes32",
          "name": "role",
          "type": "bytes32"
        }
      ],
      "name": "getRoleAdmin",
      "outputs": [
        {
          "internalType": "bytes32",
          "name": "",
          "type": "bytes32"
        }
      ],
      "stateMutability": "view",
      "type": "function"
    },
    {
      "inputs": [
        {
          "internalType": "bytes32",
          "name": "role",
          "type": "bytes32"
        },
        {
          "internalType": "address",
          "name": "account",
          "type": "address"
        }
      ],
      "name": "grantRole",
      "outputs": [],
      "stateMutability": "nonpayable",
      "type": "function"
    },
    {
      "inputs": [
        {
          "internalType": "bytes32",
          "name": "role",
          "type": "bytes32"
        },
        {
          "internalType": "address",
          "name": "account",
          "type": "address"
        }
      ],
      "name": "hasRole",
      "outputs": [
        {
          "internalType": "bool",
          "name": "",
          "type": "bool"
        }
      ],
      "stateMutability": "view",
      "type": "function"
    },
    {
      "inputs": [
        {
          "internalType": "address",
          "name": "forwarder",
          "type": "address"
        }
      ],
      "name": "isTrustedForwarder",
      "outputs": [
        {
          "internalType": "bool",
          "name": "",
          "type": "bool"
        }
      ],
      "stateMutability": "view",
      "type": "function"
    },
    {
      "inputs": [],
      "name": "managerAddr",
      "outputs": [
        {
          "internalType": "address",
          "name": "",
          "type": "address"
        }
      ],
      "stateMutability": "view",
      "type": "function"
    },
    {
      "inputs": [
        {
          "internalType": "address",
          "name": "_managerAddress",
          "type": "address"
        }
      ],
      "name": "managerAddress",
      "outputs": [],
      "stateMutability": "nonpayable",
      "type": "function"
    },
    {
      "inputs": [
        {
          "internalType": "address",
          "name": "_mintableToken",
          "type": "address"
        },
        {
          "internalType": "address",
          "name": "_supportedToken",
          "type": "address"
        }
      ],
      "name": "mint",
      "outputs": [],
      "stateMutability": "nonpayable",
      "type": "function"
    },
    {
      "inputs": [
        {
          "internalType": "address",
          "name": "",
          "type": "address"
        }
      ],
      "name": "mintableTokens",
      "outputs": [
        {
          "internalType": "uint256",
          "name": "",
          "type": "uint256"
        }
      ],
      "stateMutability": "view",
      "type": "function"
    },
    {
      "inputs": [
        {
          "internalType": "address",
          "name": "",
          "type": "address"
        }
      ],
      "name": "minted",
      "outputs": [
        {
          "internalType": "bool",
          "name": "",
          "type": "bool"
        }
      ],
      "stateMutability": "view",
      "type": "function"
    },
    {
      "inputs": [
        {
          "internalType": "bytes32",
          "name": "role",
          "type": "bytes32"
        },
        {
          "internalType": "address",
          "name": "account",
          "type": "address"
        }
      ],
      "name": "renounceRole",
      "outputs": [],
      "stateMutability": "nonpayable",
      "type": "function"
    },
    {
      "inputs": [
        {
          "internalType": "bytes32",
          "name": "role",
          "type": "bytes32"
        },
        {
          "internalType": "address",
          "name": "account",
          "type": "address"
        }
      ],
      "name": "revokeRole",
      "outputs": [],
      "stateMutability": "nonpayable",
      "type": "function"
    },
    {
      "inputs": [
        {
          "internalType": "address",
          "name": "_factoryAddress",
          "type": "address"
        }
      ],
      "name": "setFactoryAddress",
      "outputs": [],
      "stateMutability": "nonpayable",
      "type": "function"
    },
    {
      "inputs": [
        {
          "internalType": "address",
          "name": "_mintableToken",
          "type": "address"
        },
        {
          "internalType": "uint256",
          "name": "_mintValue",
          "type": "uint256"
        }
      ],
      "name": "setMintValue",
      "outputs": [],
      "stateMutability": "nonpayable",
      "type": "function"
    },
    {
      "inputs": [
        {
          "internalType": "address",
          "name": "_tokenFunc",
          "type": "address"
        }
      ],
      "name": "setTokenFunc",
      "outputs": [],
      "stateMutability": "nonpayable",
      "type": "function"
    },
    {
      "inputs": [
        {
          "internalType": "bytes4",
          "name": "interfaceId",
          "type": "bytes4"
        }
      ],
      "name": "supportsInterface",
      "outputs": [
        {
          "internalType": "bool",
          "name": "",
          "type": "bool"
        }
      ],
      "stateMutability": "view",
      "type": "function"
    },
    {
      "inputs": [],
      "name": "tokenFunc",
      "outputs": [
        {
          "internalType": "address",
          "name": "",
          "type": "address"
        }
      ],
      "stateMutability": "view",
      "type": "function"
    }
  ],
  "bytecode": "0x60a06040523480156200001157600080fd5b506040516200218c3803806200218c83398181016040528101906200003791906200030a565b808073ffffffffffffffffffffffffffffffffffffffff1660808173ffffffffffffffffffffffffffffffffffffffff168152505050620000826000801b336200008960201b60201c565b506200033c565b6200009b82826200017a60201b60201c565b6200017657600160008084815260200190815260200160002060000160008373ffffffffffffffffffffffffffffffffffffffff1673ffffffffffffffffffffffffffffffffffffffff16815260200190815260200160002060006101000a81548160ff0219169083151502179055506200011b620001e460201b60201c565b73ffffffffffffffffffffffffffffffffffffffff168173ffffffffffffffffffffffffffffffffffffffff16837f2f8788117e7eff1d82e926ec794901d17c78024a50270940304540a733656f0d60405160405180910390a45b5050565b600080600084815260200190815260200160002060000160008373ffffffffffffffffffffffffffffffffffffffff1673ffffffffffffffffffffffffffffffffffffffff16815260200190815260200160002060009054906101000a900460ff16905092915050565b6000620001fb6200020060201b62000d9d1760201c565b905090565b600062000213336200024a60201b60201c565b156200022957601436033560601c905062000246565b6200023e6200028460201b62000dcf1760201c565b905062000247565b5b90565b600060805173ffffffffffffffffffffffffffffffffffffffff168273ffffffffffffffffffffffffffffffffffffffff16149050919050565b600033905090565b600080fd5b600073ffffffffffffffffffffffffffffffffffffffff82169050919050565b6000620002be8262000291565b9050919050565b6000620002d282620002b1565b9050919050565b620002e481620002c5565b8114620002f057600080fd5b50565b6000815190506200030481620002d9565b92915050565b6000602082840312156200032357620003226200028c565b5b60006200033384828501620002f3565b91505092915050565b608051611e346200035860003960006105da0152611e346000f3fe608060405234801561001057600080fd5b506004361061012c5760003560e01c806383c17c55116100ad578063c295de8111610071578063c295de8114610355578063d547741f14610371578063e58378bb1461038d578063ec87621c146103ab578063ee1fe2ad146103c95761012c565b806383c17c55146102af57806391d14854146102cb578063966dae0e146102fb578063982eacad14610319578063a217fddf146103375761012c565b80632f2ff15d116100f45780632f2ff15d146101fb57806336568abe1461021757806345711d4814610233578063572b6c051461026357806370627ec0146102935761012c565b806301ffc9a7146101315780631a6c49f5146101615780631e7269c51461017d578063248a9ca3146101ad5780632e3c9e99146101dd575b600080fd5b61014b60048036038101906101469190611370565b6103e5565b60405161015891906113b8565b60405180910390f35b61017b60048036038101906101769190611467565b61045f565b005b610197600480360381019061019291906114a7565b6104b5565b6040516101a491906113b8565b60405180910390f35b6101c760048036038101906101c2919061150a565b6104d5565b6040516101d49190611546565b60405180910390f35b6101e56104f4565b6040516101f29190611570565b60405180910390f35b6102156004803603810190610210919061158b565b61051a565b005b610231600480360381019061022c919061158b565b61053b565b005b61024d600480360381019061024891906114a7565b6105be565b60405161025a91906115da565b60405180910390f35b61027d600480360381019061027891906114a7565b6105d6565b60405161028a91906113b8565b60405180910390f35b6102ad60048036038101906102a891906114a7565b61062e565b005b6102c960048036038101906102c491906114a7565b610680565b005b6102e560048036038101906102e0919061158b565b6106d2565b6040516102f291906113b8565b60405180910390f35b61030361073c565b6040516103109190611570565b60405180910390f35b610321610762565b60405161032e9190611570565b60405180910390f35b61033f610788565b60405161034c9190611546565b60405180910390f35b61036f600480360381019061036a91906114a7565b61078f565b005b61038b6004803603810190610386919061158b565b6107e1565b005b610395610802565b6040516103a29190611546565b60405180910390f35b6103b3610826565b6040516103c09190611546565b60405180910390f35b6103e360048036038101906103de91906115f5565b61084a565b005b60007f7965db0b000000000000000000000000000000000000000000000000000000007bffffffffffffffffffffffffffffffffffffffffffffffffffffffff1916827bffffffffffffffffffffffffffffffffffffffffffffffffffffffff19161480610458575061045782610dd7565b5b9050919050565b6000801b61046c81610e41565b81600460008573ffffffffffffffffffffffffffffffffffffffff1673ffffffffffffffffffffffffffffffffffffffff16815260200190815260200160002081905550505050565b60056020528060005260406000206000915054906101000a900460ff1681565b6000806000838152602001908152602001600020600101549050919050565b600360009054906101000a900473ffffffffffffffffffffffffffffffffffffffff1681565b610523826104d5565b61052c81610e41565b6105368383610e55565b505050565b610543610f35565b73ffffffffffffffffffffffffffffffffffffffff168173ffffffffffffffffffffffffffffffffffffffff16146105b0576040517f08c379a00000000000000000000000000000000000000000000000000000000081526004016105a7906116b8565b60405180910390fd5b6105ba8282610f44565b5050565b60046020528060005260406000206000915090505481565b60007f000000000000000000000000000000000000000000000000000000000000000073ffffffffffffffffffffffffffffffffffffffff168273ffffffffffffffffffffffffffffffffffffffff16149050919050565b6000801b61063b81610e41565b81600260006101000a81548173ffffffffffffffffffffffffffffffffffffffff021916908373ffffffffffffffffffffffffffffffffffffffff1602179055505050565b6000801b61068d81610e41565b81600160006101000a81548173ffffffffffffffffffffffffffffffffffffffff021916908373ffffffffffffffffffffffffffffffffffffffff1602179055505050565b600080600084815260200190815260200160002060000160008373ffffffffffffffffffffffffffffffffffffffff1673ffffffffffffffffffffffffffffffffffffffff16815260200190815260200160002060009054906101000a900460ff16905092915050565b600160009054906101000a900473ffffffffffffffffffffffffffffffffffffffff1681565b600260009054906101000a900473ffffffffffffffffffffffffffffffffffffffff1681565b6000801b81565b6000801b61079c81610e41565b81600360006101000a81548173ffffffffffffffffffffffffffffffffffffffff021916908373ffffffffffffffffffffffffffffffffffffffff1602179055505050565b6107ea826104d5565b6107f381610e41565b6107fd8383610f44565b505050565b7fb19546dff01e856fb3f010c267a7b1c60363cf8a4664e21cc89c26224620214e81565b7f241ecf16d79d0f8dbfb92cbc07fe17840425976cf0667f022fe9877caa831b0881565b6000600460008473ffffffffffffffffffffffffffffffffffffffff1673ffffffffffffffffffffffffffffffffffffffff168152602001908152602001600020549050600081116108d1576040517f08c379a00000000000000000000000000000000000000000000000000000000081526004016108c890611724565b60405180910390fd5b600073ffffffffffffffffffffffffffffffffffffffff168273ffffffffffffffffffffffffffffffffffffffff1603610940576040517f08c379a000000000000000000000000000000000000000000000000000000000815260040161093790611790565b60405180910390fd5b600061094a610f35565b9050600560008273ffffffffffffffffffffffffffffffffffffffff1673ffffffffffffffffffffffffffffffffffffffff16815260200190815260200160002060009054906101000a900460ff16156109d9576040517f08c379a00000000000000000000000000000000000000000000000000000000081526004016109d0906117fc565b60405180910390fd5b6001600560008373ffffffffffffffffffffffffffffffffffffffff1673ffffffffffffffffffffffffffffffffffffffff16815260200190815260200160002060006101000a81548160ff0219169083151502179055506000600160009054906101000a900473ffffffffffffffffffffffffffffffffffffffff1673ffffffffffffffffffffffffffffffffffffffff166347f371be8360006040518363ffffffff1660e01b8152600401610a91929190611861565b602060405180830381865afa158015610aae573d6000803e3d6000fd5b505050506040513d601f19601f82011682018060405250810190610ad2919061189f565b905060006002600360009054906101000a900473ffffffffffffffffffffffffffffffffffffffff1673ffffffffffffffffffffffffffffffffffffffff1663853f352187600260009054906101000a900473ffffffffffffffffffffffffffffffffffffffff166040518363ffffffff1660e01b8152600401610b579291906118cc565b602060405180830381865afa158015610b74573d6000803e3d6000fd5b505050506040513d601f19601f82011682018060405250810190610b98919061190a565b610ba29190611966565b905060008111610be7576040517f08c379a0000000000000000000000000000000000000000000000000000000008152600401610bde906119f4565b60405180910390fd5b6000859050818173ffffffffffffffffffffffffffffffffffffffff166370a08231856040518263ffffffff1660e01b8152600401610c269190611570565b602060405180830381865afa158015610c43573d6000803e3d6000fd5b505050506040513d601f19601f82011682018060405250810190610c67919061190a565b11610ca7576040517f08c379a0000000000000000000000000000000000000000000000000000000008152600401610c9e90611a86565b60405180910390fd5b60008790508073ffffffffffffffffffffffffffffffffffffffff1663a9059cbb85886040518363ffffffff1660e01b8152600401610ce7929190611aa6565b6020604051808303816000875af1158015610d06573d6000803e3d6000fd5b505050506040513d601f19601f82011682018060405250810190610d2a9190611afb565b508473ffffffffffffffffffffffffffffffffffffffff168873ffffffffffffffffffffffffffffffffffffffff167fc8337e707d8f74a609ac140abf9dc8387d501260a18e24feb9dc2185a9300262600089604051610d8b929190611aa6565b60405180910390a35050505050505050565b6000610da8336105d6565b15610dbc57601436033560601c9050610dcb565b610dc4610dcf565b9050610dcc565b5b90565b600033905090565b60007f01ffc9a7000000000000000000000000000000000000000000000000000000007bffffffffffffffffffffffffffffffffffffffffffffffffffffffff1916827bffffffffffffffffffffffffffffffffffffffffffffffffffffffff1916149050919050565b610e5281610e4d610f35565b611025565b50565b610e5f82826106d2565b610f3157600160008084815260200190815260200160002060000160008373ffffffffffffffffffffffffffffffffffffffff1673ffffffffffffffffffffffffffffffffffffffff16815260200190815260200160002060006101000a81548160ff021916908315150217905550610ed6610f35565b73ffffffffffffffffffffffffffffffffffffffff168173ffffffffffffffffffffffffffffffffffffffff16837f2f8788117e7eff1d82e926ec794901d17c78024a50270940304540a733656f0d60405160405180910390a45b5050565b6000610f3f610d9d565b905090565b610f4e82826106d2565b1561102157600080600084815260200190815260200160002060000160008373ffffffffffffffffffffffffffffffffffffffff1673ffffffffffffffffffffffffffffffffffffffff16815260200190815260200160002060006101000a81548160ff021916908315150217905550610fc6610f35565b73ffffffffffffffffffffffffffffffffffffffff168173ffffffffffffffffffffffffffffffffffffffff16837ff6391f5c32d9c69d2a47ea670b442974b53935d1edc7fd64eb21e047a839171b60405160405180910390a45b5050565b61102f82826106d2565b6110a65761103c816110aa565b61104a8360001c60206110d7565b60405160200161105b929190611c31565b6040516020818303038152906040526040517f08c379a000000000000000000000000000000000000000000000000000000000815260040161109d9190611cb5565b60405180910390fd5b5050565b60606110d08273ffffffffffffffffffffffffffffffffffffffff16601460ff166110d7565b9050919050565b6060600060028360026110ea9190611966565b6110f49190611cd7565b67ffffffffffffffff81111561110d5761110c611d0b565b5b6040519080825280601f01601f19166020018201604052801561113f5781602001600182028036833780820191505090505b5090507f30000000000000000000000000000000000000000000000000000000000000008160008151811061117757611176611d3a565b5b60200101907effffffffffffffffffffffffffffffffffffffffffffffffffffffffffffff1916908160001a9053507f7800000000000000000000000000000000000000000000000000000000000000816001815181106111db576111da611d3a565b5b60200101907effffffffffffffffffffffffffffffffffffffffffffffffffffffffffffff1916908160001a9053506000600184600261121b9190611966565b6112259190611cd7565b90505b60018111156112c5577f3031323334353637383961626364656600000000000000000000000000000000600f86166010811061126757611266611d3a565b5b1a60f81b82828151811061127e5761127d611d3a565b5b60200101907effffffffffffffffffffffffffffffffffffffffffffffffffffffffffffff1916908160001a905350600485901c9450806112be90611d69565b9050611228565b5060008414611309576040517f08c379a000000000000000000000000000000000000000000000000000000000815260040161130090611dde565b60405180910390fd5b8091505092915050565b600080fd5b60007fffffffff0000000000000000000000000000000000000000000000000000000082169050919050565b61134d81611318565b811461135857600080fd5b50565b60008135905061136a81611344565b92915050565b60006020828403121561138657611385611313565b5b60006113948482850161135b565b91505092915050565b60008115159050919050565b6113b28161139d565b82525050565b60006020820190506113cd60008301846113a9565b92915050565b600073ffffffffffffffffffffffffffffffffffffffff82169050919050565b60006113fe826113d3565b9050919050565b61140e816113f3565b811461141957600080fd5b50565b60008135905061142b81611405565b92915050565b6000819050919050565b61144481611431565b811461144f57600080fd5b50565b6000813590506114618161143b565b92915050565b6000806040838503121561147e5761147d611313565b5b600061148c8582860161141c565b925050602061149d85828601611452565b9150509250929050565b6000602082840312156114bd576114bc611313565b5b60006114cb8482850161141c565b91505092915050565b6000819050919050565b6114e7816114d4565b81146114f257600080fd5b50565b600081359050611504816114de565b92915050565b6000602082840312156115205761151f611313565b5b600061152e848285016114f5565b91505092915050565b611540816114d4565b82525050565b600060208201905061155b6000830184611537565b92915050565b61156a816113f3565b82525050565b60006020820190506115856000830184611561565b92915050565b600080604083850312156115a2576115a1611313565b5b60006115b0858286016114f5565b92505060206115c18582860161141c565b9150509250929050565b6115d481611431565b82525050565b60006020820190506115ef60008301846115cb565b92915050565b6000806040838503121561160c5761160b611313565b5b600061161a8582860161141c565b925050602061162b8582860161141c565b9150509250929050565b600082825260208201905092915050565b7f416363657373436f6e74726f6c3a2063616e206f6e6c792072656e6f756e636560008201527f20726f6c657320666f722073656c660000000000000000000000000000000000602082015250565b60006116a2602f83611635565b91506116ad82611646565b604082019050919050565b600060208201905081810360008301526116d181611695565b9050919050565b7f546f6b656e206973206e6f74206d696e7461626c650000000000000000000000600082015250565b600061170e601583611635565b9150611719826116d8565b602082019050919050565b6000602082019050818103600083015261173d81611701565b9050919050565b7f496e76616c696420737570706f72746564546f6b656e00000000000000000000600082015250565b600061177a601683611635565b915061178582611744565b602082019050919050565b600060208201905081810360008301526117a98161176d565b9050919050565b7f4d696e7465722068617320616c7265616479206d696e74656400000000000000600082015250565b60006117e6601983611635565b91506117f1826117b0565b602082019050919050565b60006020820190508181036000830152611815816117d9565b9050919050565b6000819050919050565b6000819050919050565b600061184b6118466118418461181c565b611826565b611431565b9050919050565b61185b81611830565b82525050565b60006040820190506118766000830185611561565b6118836020830184611852565b9392505050565b60008151905061189981611405565b92915050565b6000602082840312156118b5576118b4611313565b5b60006118c38482850161188a565b91505092915050565b60006040820190506118e16000830185611561565b6118ee6020830184611561565b9392505050565b6000815190506119048161143b565b92915050565b6000602082840312156119205761191f611313565b5b600061192e848285016118f5565b91505092915050565b7f4e487b7100000000000000000000000000000000000000000000000000000000600052601160045260246000fd5b600061197182611431565b915061197c83611431565b925082820261198a81611431565b915082820484148315176119a1576119a0611937565b5b5092915050565b7f496e76616c696420737570706f7274656420746f6b656e000000000000000000600082015250565b60006119de601783611635565b91506119e9826119a8565b602082019050919050565b60006020820190508181036000830152611a0d816119d1565b9050919050565b7f496e73756666696369656e7420737570706f7274656420746f6b656e2062616c60008201527f616e636520666f72206d696e7465720000000000000000000000000000000000602082015250565b6000611a70602f83611635565b9150611a7b82611a14565b604082019050919050565b60006020820190508181036000830152611a9f81611a63565b9050919050565b6000604082019050611abb6000830185611561565b611ac860208301846115cb565b9392505050565b611ad88161139d565b8114611ae357600080fd5b50565b600081519050611af581611acf565b92915050565b600060208284031215611b1157611b10611313565b5b6000611b1f84828501611ae6565b91505092915050565b600081905092915050565b7f416363657373436f6e74726f6c3a206163636f756e7420000000000000000000600082015250565b6000611b69601783611b28565b9150611b7482611b33565b601782019050919050565b600081519050919050565b60005b83811015611ba8578082015181840152602081019050611b8d565b60008484015250505050565b6000611bbf82611b7f565b611bc98185611b28565b9350611bd9818560208601611b8a565b80840191505092915050565b7f206973206d697373696e6720726f6c6520000000000000000000000000000000600082015250565b6000611c1b601183611b28565b9150611c2682611be5565b601182019050919050565b6000611c3c82611b5c565b9150611c488285611bb4565b9150611c5382611c0e565b9150611c5f8284611bb4565b91508190509392505050565b6000601f19601f8301169050919050565b6000611c8782611b7f565b611c918185611635565b9350611ca1818560208601611b8a565b611caa81611c6b565b840191505092915050565b60006020820190508181036000830152611ccf8184611c7c565b905092915050565b6000611ce282611431565b9150611ced83611431565b9250828201905080821115611d0557611d04611937565b5b92915050565b7f4e487b7100000000000000000000000000000000000000000000000000000000600052604160045260246000fd5b7f4e487b7100000000000000000000000000000000000000000000000000000000600052603260045260246000fd5b6000611d7482611431565b915060008203611d8757611d86611937565b5b600182039050919050565b7f537472696e67733a20686578206c656e67746820696e73756666696369656e74600082015250565b6000611dc8602083611635565b9150611dd382611d92565b602082019050919050565b60006020820190508181036000830152611df781611dbb565b905091905056fea2646970667358221220121b3ee7a532450fa6205e30253a889eff93e699881cd2420989dfba6c03301f64736f6c63430008110033",
  "linkReferences": {},
  "deployedLinkReferences": {}
}